:020000040800F2
:10000000E89C0020D5050008270200082902000806
:100010002D0200083102000835020008000000002F
:10002000000000000000000000000000390200088D
:100030003B020008000000003D0200083F020008EB
:10004000EF050008EF050008EF050008EF050008C0
:10005000EF050008EF050008EF050008EF050008B0
:10006000EF050008EF050008EF050008EF050008A0
:10007000EF050008EF050008EF050008EF05000890
:10008000EF050008EF050008EF050008EF05000880
:10009000EF050008EF050008EF050008EF05000870
:1000A000EF050008EF050008EF050008EF05000860
:1000B000EF050008EF050008EF050008EF05000850
:1000C000EF050008EF050008EF050008EF05000840
:1000D000EF050008A1220008EF050008EF05000861
:1000E000EF050008EF050008EF050008EF05000820
:1000F000EF050008EF050008EF050008EF05000810
:10010000EF050008EF050008EF050008EF050008FF
:10011000EF050008EF050008EF050008EF050008EF
:10012000EF050008EF050008EF050008EF050008DF
:10013000EF050008EF050008EF050008EF050008CF
:10014000EF050008EF050008EF050008EF050008BF
:10015000EF050008EF050008EF050008EF050008AF
:10016000EF050008EF050008EF050008EF0500089F
:10017000EF050008EF050008EF050008EF0500088F
:10018000EF050008EF05000800F002F800F03CF869
:100190000AA090E8000C82448344AAF10107DA45E2
:1001A00001D100F031F8AFF2090EBAE80F0013F0F8
:1001B000010F18BFFB1A43F001031847D44C00008D
:1001C000F44C0000103A24BF78C878C1FAD852071E
:1001D00024BF30C830C144BF04680C6070470000C1
:1001E0000023002400250026103A28BF78C1FBD840
:1001F000520728BF30C148BF0B6070471FB504F0DD
:10020000C2FD1FBD10B510BD03F088FA1146FFF7FF
:10021000F5FF00F01DF903F0A6FA03B4FFF7F2FFB3
:1002200003BC01F0DDFF704700BFFEE700BFFEE743
:1002300000BFFEE700BFFEE770477047704770479A
:100240000CB50020019000907648006840F48030A2
:100250007449086000BF7348006800F400300090E3
:100260000198401C0190009818B90198B0F5A04F72
:10027000F1D16C48006800F4003010B1012000900A
:1002800001E0002000900098012846D165484030E8
:10029000006840F08050634940310860624800685F
:1002A00040F44040604908605E48083000685D499D
:1002B000083108600846006840F4004008600846BD
:1002C000006840F4A05008605848091F0860081FE3
:1002D000006840F08070091F086000BF5148006846
:1002E00000F000700028F9D040F205705049086015
:1002F0004C480830006820F003004A490831086083
:100300000846006840F00200086000BF4548083019
:10031000006800F00C000828F8D10CBD10B5454865
:10032000006840F47000434908603E48006840F0AF
:1003300001003C49086000203A490831086039480A
:1003400000683D490840374908603C48091D08607D
:10035000081F006820F48020091F08600020314930
:100360000C310860FFF76CFF4FF0006031498039B5
:10037000086010BD70B50020002202230024022175
:10038000284D08352D6805F00C0020B1042806D052
:10039000082834D107E02A4D2A4E356033E02A4D33
:1003A000284E35602FE01F4D2D1D2D68C5F380545C
:1003B0001C4D2D1D2D6805F03F0154B1224DB5FB9C
:1003C000F1F5184E361D3668C6F3881605FB06F2A1
:1003D00009E01B4DB5FBF1F5124E361D3668C6F32C
:1003E000881605FB06F20F4D2D1D2D68C5F301453E
:1003F0006D1C6B00B2FBF3F5124E356003E0104D3F
:10040000104E356000BF00BF064D08352D68C5F39E
:1004100003150E4E705D0B4D2D68C540094E3560BD
:1004200070BD0000003802400070004019544007C1
:10043000003C024088ED00E0FFFFF6FE1030002493
:100440000024F4000000002040787D01040000201A
:1004500000BF002402F0FEF84FF4E13001F0CEFEC0
:10046000A72142F20F7001F021FF02F05AF8A820F4
:1004700001F034FE02F0F5FA03F01DF8002002F05E
:100480001BF9012002F018F9022002F015F90320EF
:1004900002F012F903F0F1F84FF47A7001F080FEE7
:1004A0007CE0002477E03E4951F824103D4A526A2E
:1004B0008818092102F047F83B4951F824104942B5
:1004C000384A52688818012102F03DF8374951F83E
:1004D0002410344A52698818052102F034F834494E
:1004E00051F8242001F51041D1F8301650180021A0
:1004F00002F029F82F4951F824104942294A12697B
:100500008818042102F01FF82B4951F824104942A1
:10051000244A126A8818082102F015F8274951F870
:100520002410204A92688818022102F00CF824490D
:1005300051F8241049421B4A92698818062102F09A
:1005400002F8204951F82410164A926A88180A21A4
:1005500001F0F9FF1C4951F824104942114AD268B0
:100560008818032101F0EFFF184951F824100D4AB3
:10057000D2698818072101F0E6FF154951F82410C7
:100580004942084AD26A88180B2101F0DCFF0F208B
:1005900001F006FE641CB4F5C87F84DB81E700002F
:1005A000683800205896002068060020681F002048
:1005B000280000202819002028320020A80C002044
:1005C000A8250020A83E0020E8120020E82B0020EB
:1005D000E84400200948804709480047FEE7FEE755
:1005E000FEE7FEE7FEE7FEE7FEE7FEE7FEE7FEE7E3
:1005F00004480549054A064B704700001D030008E2
:1006000089010008E8960020E89C0020E898002076
:10061000E898002032490143324A1160704770B5B2
:10062000002100230F22C4781CB32E4C246804F44C
:10063000E064C4F5E064C4F30721C1F10404E3B24B
:100640000A4144789C40E1B28478144021430C076D
:10065000210E254C05786155047804F01F0501240E
:10066000AC4005786D11AD0005F1E025C5F80041FD
:1006700009E0047804F01F050124AC401B4D067806
:10068000761145F8264070BD194A0A400243154BC1
:100690001B1F1A60704739B1124A121D12680243BB
:1006A000104B1B1D1A6006E00E4A121D1268824391
:1006B0000C4B1B1D1A607047042808D14FF0E02135
:1006C000096941F004014FF0E022116107E04FF0A9
:1006D000E021096921F004014FF0E0221161704727
:1006E0000000FA050CED00E000E400E080E100E02D
:1006F00080FFFF1F10B504469848844208D10121AD
:10070000084600F086FB0021012000F082FB76E025
:100710009348844208D10121022000F07AFB002195
:10072000022000F076FB6AE08E48844208D1012165
:10073000042000F06EFB0021042000F06AFB5EE064
:100740008948844208D10121082000F062FB002181
:10075000082000F05EFB52E08448844208D1012169
:10076000102000F056FB0021102000F052FB46E064
:100770007F48844208D10121202000F04AFB00215B
:10078000202000F046FB3AE07A48844208D101215B
:10079000402000F03EFB0021402000F03AFB2EE01C
:1007A0007548844208D10121802000F032FB0021ED
:1007B000802000F02EFB22E07048844208D1012105
:1007C000801500F026FB0021A01500F022FB16E0AA
:1007D0006B48844208D10121401500F01AFB00212A
:1007E000601500F016FB0AE06648844207D101213B
:1007F000001500F00EFB0021201500F00AFB10BDD3
:10080000F0B50A4600210023002400BF3DE0012589
:1008100005FA01F3156805EA03049C4234D1056822
:100820004F000326BE40B543056015794E00B54024
:100830000668354305601579012D02D01579022D22
:1008400016D185684F000326BE40B54385605579B3
:100850004E00B540866835438560456801268E4068
:10086000B5434560456896798E40B6B235434560DC
:10087000C5684F000326BE40B543C560D5794E001C
:10088000B540C6683543C560491C1029BFD3F0BDCB
:100890004FF6FF7101600021017141718171C171D9
:1008A000704708B54FF480320092009A0A430092D4
:1008B000009AC261C161009AC261C2690092C269B4
:1008C000009208BD0246002013690B400BB10120C5
:1008D00000E0002070470146086980B27047024678
:1008E000002053690B400BB1012000E0002070474D
:1008F0000146486980B27047018370474183704761
:100900000AB1018300E04183704741617047426949
:100910004A4042617047F0B5002300244D07ED0EB8
:1009200002FA05F3CE1000F1200555F826504E07C7
:10093000F70E0F26BE40B543CF1000F1200646F853
:100940002750CE1000F1200555F8265045EA030443
:10095000CE1000F1200545F82640F0BD0000024011
:100960000004024000080240000C02400010024057
:100970000014024000180240001C02400020024007
:100980000024024000280240F948006840F00100BD
:10099000F74908600020F64908310860F44800680B
:1009A000F4490840F2490860F348091D0860F3481B
:1009B000EF4984310860F0481038091D0860EC48A0
:1009C000006820F48020EA4908600020E8490C31E2
:1009D0000860E7498C31086070470021E44A921CA6
:1009E000117011460870704710B5014600220023AF
:1009F00000204A11012A02D1DD4C236808E0022AB6
:100A000003D1DB4C7034236802E0D94C7434236882
:100A100001F01F02012494401C400CB1012000E0B1
:100A2000002010BD38B5002000900024002500BF34
:100A30003120FFF7D9FF05460098401C0090009830
:100A4000B0F5A04F01D0002DF2D03120FFF7CCFF40
:100A500008B1012400E00024204638BD01460020F2
:100A6000C34A106820F0F80040EAC10010607047E7
:100A7000C349086070470021BD4A7032117011707F
:100A8000012802D004280AD104E00121B84A7032BA
:100A9000117005E00521B64A7032117000E000BF08
:100AA00000BF7047B7490860704770B5049C41EAC1
:100AB00082150126C6EB530645EA0645054345EA7D
:100AC0000465AB4E361D356070BDAD490866704794
:100AD000820142EA0172A64B84331A607047A8492A
:100AE0008866704710B5830143EA016343EA0273E5
:100AF0009F4C8834236010BDA14908677047A04906
:100B0000C864704702460020994B0833186820F0EB
:100B1000EC6042EA01031843954B083318607047B4
:100B200002460020924B0833186820F0784042EAD1
:100B3000010318438E4B08331860704701460020AC
:100B40008B4A0832106820F0030008431060704799
:100B500087480830006800F00C007047014600200C
:100B6000834A0832106820F0F00008431060704794
:100B7000014600207E4A0832106820F4E050084305
:100B80001060704701460020794A0832106820F44E
:100B9000604040EAC10010607047F0B500210022BB
:100BA0000024022500260223714F08373F6807F012
:100BB0000C0121B1042905D0082937D105E0724F75
:100BC000076036E0714F076033E0694F3F1D3F68B3
:100BD000C7F38056664F3F1D3F6807F03F036EB175
:100BE0006A4FB7FBF3F7DFF888C10CF1040CDCF8AF
:100BF00000C0CCF3881C07FB0CF40CE0624FB7FB81
:100C0000F3F7DFF86CC10CF1040CDCF800C0CCF396
:100C1000881C07FB0CF4564F3F1D3F68C7F3014784
:100C20007F1C7D00B4FBF5F7076002E0564F0760BC
:100C300000BF00BF4E4F08373F6807F0F0010909B9
:100C4000534F7A5C0768D7404760494F08373F6881
:100C500007F4E051890A4E4F7A5C4768D7408760B5
:100C6000434F08373F6807F46041490B484F7A5CAF
:100C70004768D740C760F0BD002100F44072B2F56C
:100C8000407F0AD13A4A0832116821F4F811414AEA
:100C900002401143364A08321160354A70321268F8
:100CA000C0F30B031A43324B70331A607047354957
:100CB0004439086070473349403908607047364905
:100CC0000860704701460020294A8C32106820F0E5
:100CD0001F004A1E1043264A8C321060704701469E
:100CE0000020234A8C32106820F4F8504A1E40EA53
:100CF00002201F4A8C3210607047014600201C4AB7
:100D00008C32106820F44010084310607047014690
:100D10000020174A8C32106820F44000084310600D
:100D2000704701460020124A8C32106820F440308F
:100D300008431060704719490860704739B10C4A80
:100D40003032126802430A4B30331A6006E0084A18
:100D5000303212688243064B30331A607047F9B163
:100D6000034A343212680243014B34331A601CE0E8
:100D700000380240FFFFF6EA103000240030002067
:100D800000004742800E47420024F40040787D0175
:100D900014000020FFFCFF0F5C014742E0114742B6
:100DA0008F4A126882438E4B1A60704739B18C4A61
:100DB000121D126802438A4B1B1D1A6006E0884A06
:100DC000121D12688243864B1B1D1A60704739B191
:100DD000834A0C3212680243814B0C331A6006E0DE
:100DE0007F4A0C32126882437D4B0C331A60704785
:100DF00039B17B4A103212680243794B10331A60C2
:100E000006E0774A103212688243754B10331A603D
:100E1000704739B1724A243A12680243704B243B3E
:100E20001A6006E06E4A243A126882436C4B243BF7
:100E30001A60704739B16A4A203A12680243684B17
:100E4000203B1A6006E0664A203A12688243644BEF
:100E5000203B1A60704739B1614A1C3A126802435C
:100E60005F4B1C3B1A6006E05D4A1C3A12688243E5
:100E70005B4B1C3B1A60704739B1594A143A1268EF
:100E80000243574B143B1A6006E0554A143A126865
:100E90008243534B143B1A60704739B1504A103AA1
:100EA000126802434E4B103B1A6006E04C4A103A5F
:100EB000126882434A4B103B1A60704739B1484A66
:100EC0001C3212680243464B1C331A6006E0444A47
:100ED0001C3212688243424B1C331A60704739B18E
:100EE0003F4A2032126802433D4B20331A6006E02D
:100EF0003B4A203212688243394B20331A607047D4
:100F000039B1374A243212680243354B24331A6010
:100F100006E0334A243212688243314B24331A608C
:100F2000704739B12E4A2C32126802432C4B2C33B5
:100F30001A6006E02A4A2C3212688243284B2C336E
:100F40001A60704739B1264A303212680243244B86
:100F500030331A6006E0224A303212688243204B56
:100F600030331A607047012808D11D493C310968A7
:100F700041F008011A4A3C32116007E018493C313F
:100F8000096821F00801164A3C321160704739B1F6
:100F9000134A273A12780243114B273B1A7006E096
:100FA0000F4A273A127882430D4B273B1A7070473D
:100FB0000B484030006840F08070094940310860BB
:100FC000704701460020064A283A12680A400AB1D2
:100FD000012000E000207047014926390870704761
:100FE0003438024010B50446FA48844208D1012141
:100FF0001020FFF752FF00211020FFF74EFF57E0AF
:10100000F548844209D101214804FFF735FF00214A
:101010004FF40030FFF730FF4AE0F048844209D136
:1010200001218804FFF728FF00214FF48020FFF7FB
:1010300023FF3DE0EA48844209D10121C804FFF7BB
:101040001BFF00214FF40020FFF716FF30E0E548BA
:10105000844209D101210805FFF70EFF00214FF45A
:101060008010FFF709FF23E0DF48844208D1012107
:101070002020FFF712FF00212020FFF70EFF17E0CE
:10108000DA48844209D101218807FFF7F5FE0021E3
:101090004FF08040FFF7F0FE0AE0D548844207D1C8
:1010A00001214005FFF7E8FE00216005FFF7E4FE9F
:1010B00010BD2DE9FF4705460E460024A14600BF9E
:1010C000A046B08900B100BF2C8A24F44054F088B7
:1010D00004432C82AC8941F20C608443B08831898E
:1010E0000843718908430443AC81AC8A24F44074FA
:1010F000B0890443AC826846FFF74FFDB54885428E
:1011000002D0B948854202D1DDF80C9001E0DDF84B
:101110000890A88900F4004040B109EBC90000EB39
:10112000091031684900B0FBF1F707E009EBC9008D
:1011300000EB091031688900B0FBF1F76420B7FBC0
:10114000F0F004012009642101FB1078A88900F463
:10115000004040B1322000EBC800B0FBF1F000F0DD
:101160000700044308E0322000EB08106421B0FBC4
:10117000F1F000F00F0004432C81BDE8FF874FF42D
:101180001651016000218180C18001810C214181C3
:1011900000218181704710B502460020108A20F49A
:1011A00070600B884C8823438C882343CC8823436E
:1011B0001843108210BD0021018041808180C180D0
:1011C000704721B1828942F40052828104E0828911
:1011D0004DF6FF731A4082817047028B02F47F4202
:1011E0000283028B0A430283704721B1828942F451
:1011F0000042828103E08289C2F30E02828170473D
:1012000021B1828A42F40062828204E0828A4FF233
:10121000FF731A4082827047C1F3080282807047D0
:1012200001468888C0F308007047028A4FF6F073C1
:101230001A400282028A0A430282704721B18289DF
:1012400042F00202828104E082894FF6FD731A4067
:101250008281704782894FF2FF731A4082818289AE
:101260000A4382817047028A4FF6DF731A40028276
:10127000028A0A430282704721B1028A42F4804204
:10128000028204E0028A4BF6FF731A400282704722
:10129000818941F001018181704721B1828A42F048
:1012A0000802828204E0828A4FF6F7731A40828233
:1012B0007047028BD2B20283028B42EA0122028380
:1012C000704721B1828A42F02002828204E0828A41
:1012D0004FF6DF731A408282704721B1828A42F052
:1012E0001002828204E0828A4FF6EF731A408282F3
:1012F0007047828A4FF6FB731A408282828A0A43C1
:101300008282704721B1828A42F00202828204E026
:10131000828A4FF6FD731A40828270471AB1838A1F
:101320000B43838202E0838A8B4383827047F0B54C
:101330000346002400260025002040F66A17B94223
:1013400000D100BF1846C1F3421401F01F06012767
:1013500007FA06F5012C01D10C3004E0022C01D172
:10136000103000E014301AB107682F43076002E024
:101370000768AF430760F0BD02460020B1F5007F6B
:1013800000D100BF13880B400BB1012000E000200A
:10139000704701F40072B2F5007F00D100BFCA436C
:1013A0000280704770B5024600240023002500200B
:1013B00040F66A16B14200D100BFC1F3421501F0F8
:1013C0001F03012606FA03F3012D13D1968933403A
:1013D00017E00000001001400044004000480040B9
:1013E000004C0040005000400014014000780040D4
:1013F000007C0040022D02D1168A334001E0968A1B
:1014000033400C12012606FA04F41688344013B156
:101410000CB1012000E0002070BD10B500220023B7
:1014200040F66A14A14200D100BF0A120124944080
:10143000A3B2DC43048010BD10B50446FE488442CC
:1014400008D101210846FFF728FD00210120FFF700
:1014500024FD9DE0B4F1804F08D101210846FFF73B
:101460000BFD00210120FFF707FD91E0F3488442C6
:1014700008D101210220FFF7FFFC00210220FFF725
:10148000FBFC85E0EE48844208D101210420FFF7EF
:10149000F3FC00210420FFF7EFFC79E0E9488442E7
:1014A00008D101210820FFF7E7FC00210820FFF701
:1014B000E3FC6DE0E448844208D101211020FFF7ED
:1014C000DBFC00211020FFF7D7FC61E0DF488442FD
:1014D00008D101212020FFF7CFFC00212020FFF7B9
:1014E000CBFC55E0DA48844208D101210220FFF705
:1014F000D4FC00210220FFF7D0FC49E0D54884420B
:1015000009D101210804FFF7C8FC00214FF4803005
:10151000FFF7C3FC3CE0D048844209D101214804D4
:10152000FFF7BBFC00214FF40030FFF7B6FC2FE0C3
:10153000CA48844209D101218804FFF7AEFC00218A
:101540004FF48020FFF7A9FC22E0C548844208D16F
:1015500001214020FFF790FC00214020FFF78CFC88
:1015600016E0C048844208D101218020FFF784FCA6
:1015700000218020FFF780FC0AE0BB48844207D1AD
:1015800001218015FFF778FC0021A015FFF774FCFE
:1015900010BD00220288A84B98420ED0AC4B984256
:1015A0000BD0B0F1804F08D0A44B984205D0A44B8B
:1015B000984202D0A34B984204D14FF68F731A4041
:1015C0004B881A43A04B984207D0A04B984204D0B6
:1015D0004FF6FF431A400B891A4302804B68C362DF
:1015E0000B880385944B984202D0994B984201D1C5
:1015F0008B7A03860123838270474FF0FF3141606D
:1016000000210180018141808172704701858282C1
:1016100070470A46002101884FF68F731940114325
:101620000180704741627047C16270470146486A55
:1016300070470146088D704721B1028842F00202CE
:10164000028004E002884FF6FD731A400280704762
:1016500021B1028842F00402028004E002884FF6C1
:10166000FB731A400280704721B1028842F0800269
:10167000028004E002884FF67F731A4002807047B0
:1016800002884FF6F7731A40028002880A430280EC
:10169000704702884FF6FF431A40028002880A43CF
:1016A0000280704721B1028842F00102028004E00A
:1016B00002884FF6FE731A400280704770B500240E
:1016C00000220023058C4FF6FE7635400584028CFF
:1016D0008388048B4FF68F752C40B51E2C400D88E7
:1016E0002C43751E2A408D892A434D882A43524D2A
:1016F000A84202D0564DA84213D14FF6F7752A40A2
:10170000CD892A434FF6FB752A408D882A434FF630
:10171000FF652B404FF6FF552B400D8A2B434D8A1A
:101720002B43838004838D684563028470BD70B54C
:10173000002400220023058C4FF6EF763540058407
:10174000028C8388048B48F6FF752C404FF6FF45CA
:101750002C400D884FF6FF7606EA05252C434FF600
:10176000DF752A408D8906EA05152A434D8806EA69
:1017700005152A43304DA84202D0354DA8421DD14F
:101780004FF67F752A40CD894FF6FF7606EA05159C
:101790002A434FF6BF752A408D8806EA05152A436D
:1017A0004FF6FF352B404FF2FF752B400D8A06EAAE
:1017B00085052B434D8A06EA85052B4383800483E8
:1017C0008D688563028470BD70B5002400220023FB
:1017D000058C4FF6FF6635400584028C8388848B28
:1017E0004FF68F752C404FF6FC752C400D882C431E
:1017F0004FF6FF552A408D894FF6FF7606EA0525FC
:101800002A434D8806EA05252A430B4DA84202D0FB
:101810000F4DA84238D14FF2FF752A40CD894FF6BF
:10182000FF7606EA05252A434FF6FF352A408D88C4
:1018300006EA05252A4319E00000014000040040A3
:1018400000080040000C0040001000400014004060
:1018500000040140004001400044014000480140B4
:1018600000180040001C0040002000404EF6FF75AC
:101870002B404DF6FF752B400D8A06EA05152B43CC
:101880004D8A06EA05152B43838084838D68C563E2
:10189000028470BD70B5002200230024058C4EF632
:1018A000FF7635400584038C8488828B48F6FF756B
:1018B0002A404FF6FF452A400D884FF6FF7606EA8C
:1018C00005252A434DF6FF752B408D8906EA05351F
:1018D0002B434D8806EA05352B43FE4DA84202D026
:1018E000FD4DA84208D14BF6FF752C400D8A4FF6EE
:1018F000FF7606EA85152C43848082838D68056413
:10190000038470BD002101804180818081608181DC
:10191000C18101824182704770B5034600200024D6
:101920001846183001258D40ACB21D8CA5431D848E
:1019300009B108290AD100EB610005684FF68F76DE
:10194000354005600568154305600FE00D1FC5F3C0
:101950004E052844056848F6FF7635400560056861
:101960004FF6FF7606EA02263543056070BD4163F7
:10197000704781637047C1637047016470470A46CE
:101980000021018B4FF68F7319401143018370477B
:101990000A460021018B48F6FF7319404FF6FF738A
:1019A00003EA02231943018370470A460021818B11
:1019B0004FF68F7319401143818370470A46002107
:1019C000818B48F6FF7319404FF6FF7303EA022339
:1019D0001943818370470A460021018B4FF6F77344
:1019E00019401143018370470A460021018B4FF2D1
:1019F000FF7319404FF6FF7303EA02231943018373
:101A000070470A460021818B4FF6F7731940114346
:101A1000818370470A460021818B4FF2FF73194082
:101A20004FF6FF7303EA02231943818370470A4686
:101A30000021018B4FF6FB7319401143018370475E
:101A40000A460021018B4FF6FF3319404FF6FF7312
:101A500003EA02231943018370470A460021818B60
:101A60004FF6FB7319401143818370470A460021EA
:101A7000818B4FF6FF3319404FF6FF7303EA0223C1
:101A80001943818370470A460021018B4FF67F730B
:101A900019401143018370470A460021018BC1F3AD
:101AA0000E014FF6FF7303EA0223194301837047C7
:101AB0000A460021818B4FF67F73194011438183C1
:101AC00070470A460021818BC1F30E014FF6FF7368
:101AD00003EA02231943818370470A460021018CDF
:101AE0004FF6FD7319401143018470470A460021E7
:101AF000018C4FF6F77319401143018470470A4671
:101B00000021018C4FF6DF7319404FF6FF7303EA93
:101B100002131943018470470A460021018C4FF6D5
:101B20007F7319404FF6FF7303EA021319430184D0
:101B300070470A460021018C4FF6FF5319404FF6BB
:101B4000FF7303EA02231943018470470A46002108
:101B5000018C4FF2FF7319404FF6FF7303EA022323
:101B60001943018470470A460021018C4DF6FF732A
:101B700019404FF6FF7303EA02331943018470479B
:101B800030B5002301248C40A3B2048C9C43048410
:101B9000048C02FA01F5ADB22C43048430BD30B59B
:101BA000002304248C40A3B2048C9C430484048C42
:101BB00002FA01F5ADB22C43048430BD828B4FF2A2
:101BC000FF331A408283828B4FF6FF7303EA0123AF
:101BD0001A4382837047F0B50C4615460021002257
:101BE0000026078C4EF6FF7C07EA0C070784818BE2
:101BF000028C4FF6FF7707EA043640F6FF4739407C
:101C00004FF6FF7707EA052739434FF6FF7707EAD4
:101C10000337394345F6FF773A4046F480573A4355
:101C200081830284F0BD828B4FF6F3731A40828366
:101C3000828B0A4382837047F0B50C46154600211B
:101C400000220026078C4FF6FF6C07EA0C0707847A
:101C5000818B028C4FF6FF7707EA04264FF60C774C
:101C600039404FF6FF7707EA03172F4339434FF206
:101C7000FF573A4046F480773A4381830284F0BDAF
:101C8000028B4FF2FF331A400283028B4FF6FF7331
:101C900003EA01231A4302837047F0B50C46154648
:101CA000002100220026078C4FF6EF7C07EA0C0784
:101CB0000784018B028C4FF6FF7707EA041640F683
:101CC000FF4739404FF6FF7707EA033739434FF6AE
:101CD000FF7703E0000001400004014007EA052708
:101CE00039434FF65F773A4046F010073A43018395
:101CF0000284F0BD028B4FF6F3731A400283028B0D
:101D00000A4302837047F0B50C46154600210022B5
:101D1000068C4FF6FE773E400684018B028C4FF610
:101D20000C7631407E1C06EA03162E4331434FF6F3
:101D3000F576324044F00106324301830284F0BD5F
:101D400070B505460C46208850B92389A288618861
:101D50002846FFF7D8FFE1882846FFF7CBFF25E0AC
:101D6000208804280AD12389A28861882846FFF7A1
:101D700094FFE1882846FFF783FF17E020880828B2
:101D80000AD12389A28861882846FFF755FFE18898
:101D90002846FFF748FF09E02389A2886188284682
:101DA000FFF719FFE1882846FFF708FF70BD002103
:101DB00001804180012181800021C1800181704723
:101DC0002DE9F04105460C4600260127608808B938
:101DD000022600E00026A088012801D1022700E0A9
:101DE00001272088A0B92389A28861882846FFF7A7
:101DF0008AFFE1882846FFF77DFF23893A4631466E
:101E00002846FFF74AFFE1882846FFF739FF13E02D
:101E10002389A28861882846FFF73FFFE18828468A
:101E2000FFF72EFF23893A4631462846FFF76BFF1E
:101E3000E1882846FFF75EFFBDE8F0810146486B68
:101E400070470146886B70470146C86B7047014672
:101E5000086C70470A884B881A438B881A43CB88D2
:101E60001A430B891A434B891A438B891A43A0F8EA
:101E7000442070470021018041808180C180018120
:101E800041818181704731B1B0F8442042F4004271
:101E9000A0F8442005E0B0F84420C2F30E02A0F8F8
:101EA0004420704721B1828842F00402828004E01D
:101EB00082884FF6FB731A408280704721B1828876
:101EC00042F00102828004E082884FF6FE731A40DD
:101ED000828070471AB183890B43838102E0838932
:101EE0008B43838170478182704702460020138AAA
:101EF0000B400BB1012000E000207047CA43028272
:101F0000704730B50246002000230024158A05EAF8
:101F10000103958905EA010413B10CB1012000E029
:101F2000002030BDCA430282704741EA0203A0F894
:101F3000483070471AB183890B43838102E083895B
:101F40008B438381704721B1828842F008028280EE
:101F500004E082884FF6F7731A4082807047018947
:101F60004FF6F8721140018170470A46002101893D
:101F70004FF68F73194011430181704730B5044605
:101F80000D4629462046FFF7F0FF208940F0070064
:101F9000208130BD2DE9F04104460D4616461F460E
:101FA000602D06D13B46012231462046FFF775FEE3
:101FB00005E03B46012231462046FFF7A4FE2946B4
:101FC0002046FFF7D2FF208940F007002081BDE8BE
:101FD000F08130B50C4600210189C9B24FF6FF757A
:101FE00005EA0325154325432943018130BD2DE929
:101FF000F04105460E4617469846002443463A46A9
:1020000031462846FFF7E5FF2C894FF6F87004406B
:1020100044F007044FF68F70044044F070042C81A4
:10202000BDE8F081F0B504460D4616461F463B4616
:10203000324629462046FFF7CCFF208940F48040F5
:102040002081F0BD82884FF68F731A40828082888B
:102050000A438280704702894FF6F8731A40028162
:1020600002890A430281704702894FF67F731A4042
:10207000028102890A4302817047F0B50C46154679
:102080001E460021002200230189028B038C4FF69B
:10209000F877394021434FF6FC473A4040F20117A8
:1020A0003A434FF6DD773B404FF6FF7707EA0617D6
:1020B0002F433B43018102830384F0BD21B1828819
:1020C00042F08002828004E082884FF67F731A40DB
:1020D00082807047A0F850107047000010B5044689
:1020E0006FF00400FEF7E8FAE11704EB5171C1F359
:1020F000C701394A11701046007800EB4001C1EB6E
:10210000C0104FF6FF7101EAC0003449088010BDCD
:102110000146314A12784A434FF0E0235A610022C7
:102120009A611A46126942F001021A6100BF4FF02B
:10213000E022106900F001021AB100F48032002A96
:10214000F5D04FF0E022126922F001024FF0E023B7
:102150001A6100229A6170470146204A12884A4358
:102160004FF0E0235A6100229A611A46126942F048
:1021700001021A6100BF4FF0E022106900F0010275
:102180001AB100F48032002AF5D04FF0E022126933
:1021900022F001024FF0E0231A6100229A61704799
:1021A00070B504464FF4077094FBF0F0C6B24FF4DC
:1021B000077094FBF0F100FB114085B205E04FF48D
:1021C0000770FFF7C9FF701EC6B2002EF7D115B118
:1021D0002846FFF7C1FF70BD240000202600002024
:1021E000014600BF704700BF2E4A128802F040022D
:1021F000002AF9D0C2B22B4B9A80704710B588B034
:10220000044601210846FEF799FD01211020FEF742
:10221000EFFD072209212448FEF77DFB07220A2152
:102220002148FEF778FB4FF4C060069002208DF83D
:102230001C008DF81D0000208DF81E0001208DF877
:102240001F0006A91848FEF7DBFA02940020ADF83B
:102250000C00ADF80E00ADF81000ADF814000C2025
:10226000ADF8120002A90F48FEF723FF01210D4827
:10227000FEF7A7FF012240F225510A48FFF757F861
:1022800025208DF8040003208DF805008DF8060048
:1022900001208DF8070001A8FEF7C1F908B010BDB4
:1022A00000207047001001400000024030B58BB0A4
:1022B00004460D4601210F20FEF789FD01210F2064
:1022C000FEF73CFD01220F21DB48FEF724FB012233
:1022D0000321DA48FEF71FFB01220A21D748FEF747
:1022E0001AFB01220B21D548FEF715FB022206211D
:1022F000D348FEF710FB02220721D148FEF70BFB63
:1023000002220021CD48FEF706FB02220121CB4824
:10231000FEF701FB02220C21CA48FEF7FCFA02225A
:102320000D21C848FEF7F7FA02220E21C548FEF734
:10233000F2FA02220F21C348FEF7EDFA0222002131
:10234000BD48FEF7E8FA02220121BB48FEF7E3FA96
:1023500002221146B848FEF7DEFA02220321B648EF
:10236000FEF7D9FA48F20F00099002208DF82800F4
:1023700003208DF8290000208DF82A008DF82B000D
:1023800009A9AD48FEF73CFA40F60B40099009A9AF
:10239000AA48FEF735FAC020099009A9A848FEF717
:1023A0002FFA4FF47040099009A9A648FEF728FAC1
:1023B000A8B2ADF818000020ADF81A000794ADF8E7
:1023C000200006A94FF08040FFF7E3F806A99E48D9
:1023D000FFF7DFF806A99D48FFF7DBF806A99C4840
:1023E000FFF7D7F86020ADF804000120ADF8060033
:1023F0000020ADF8100001A94FF08040FFF75EF912
:1024000001A99148FFF75AF901A99048FFF756F939
:1024100001A98F48FFF752F90821C806FFF7DBFA38
:1024200008218948FFF7D7FA08218848FFF7D3FA2F
:1024300008218748FFF7CFFA01A94FF08040FFF746
:1024400076F901A98048FFF772F901A97F48FFF7E3
:102450006EF901A97E48FFF76AF90821C806FFF75F
:10246000C3FA08217848FFF7BFFA08217748FFF739
:10247000BBFA08217648FFF7B7FA01A94FF0804070
:10248000FFF7A2F901A97048FFF79EF901A96F486B
:10249000FFF79AF901A96E48FFF796F90821C806D7
:1024A000FFF7AFFA08216848FFF7ABFA0821674841
:1024B000FFF7A7FA08216648FFF7A3FA01A94FF032
:1024C0008040FFF7E7F901A95F48FFF7E3F901A9A9
:1024D0005E48FFF7DFF901A95D48FFF7DBF9082146
:1024E000C806FFF797FA08215748FFF793FA082123
:1024F0005648FFF78FFA08215548FFF78BFA01215C
:102500008807FFF7B1F801214F48FFF7ADF8012127
:102510004E48FFF7A9F801214D48FFF7A5F80BB089
:1025200030BD10B501218807FFF7BCF801214648EE
:10253000FFF7B8F801214548FFF7B4F801214448F6
:10254000FFF7B0F810BD70B505460C46002605EB48
:10255000850000F2EE26012C04D13146A007FFF7DA
:1025600006FA68E0032C05D131464FF08040FFF7B2
:1025700000FA60E02CB931464FF08040FFF7FBF9DC
:1025800059E0022C04D131466007FFF7F6F952E01A
:10259000052C04D131462C48FFF7E9F94BE0072C14
:1025A00004D131462848FFF7E4F944E0042C04D173
:1025B00031462548FFF7DFF93DE0062C04D13146CE
:1025C0002148FFF7DAF936E0092C04D131461F48DB
:1025D000FFF7CDF92FE00B2C04D131461B48FFF754
:1025E000C8F928E0082C04D131461848FFF7C3F990
:1025F00021E00A2C04D131461448FFF7BEF91AE055
:102600000C2C04D131461248FFF7B1F913E00D2C20
:1026100004D131460E48FFF7ACF90CE00E2C04D182
:1026200031460B48FFF7A7F905E00F2C03D13146DF
:102630000748FFF7A2F970BD000002400004024005
:1026400000080240000C0240000400400008004066
:10265000000C00401CB500200190FEF795F9012008
:10266000FEF7BBF9FEF7DEF901900198012822D1AF
:102670000020FEF72AFA0220FEF760FA0020FEF79B
:102680006DFA4FF4A050FEF773FA4FF48050FEF746
:1026900079FA072002234FF4A872192100905805F7
:1026A000FEF703FA0120FEF710FA00BF3920FEF70B
:1026B0009BF90028FAD01CBD2DE9F0432DED108BBD
:1026C00095B004460025B7EE000A8DED140AB7EE6A
:1026D000000A8DED130AB7EE000A8DED120AB7EE6F
:1026E000000A8DED110A9FEDFE0A8DED100A9FED97
:1026F000FD0AB0EE40AA9FEDFC0AF0EE40AA9FED65
:10270000FA0AF0EE408AF94800EB840090ED000AE6
:10271000B0EE409AF548103000EB840090ED000ACE
:10272000F0EE409AF148203000EB840090ED000A72
:10273000B0EE408A9FEDEA0A10EE106A9FEDE80ABB
:1027400010EE107A9FEDE60A10EE108A9FEDE40A73
:102750008DED0F0A9FEDE20A8DED0E0A9FEDE00A66
:102760008DED0D0A9FEDDE0A8DED0C0A9FEDDC0A62
:102770008DED0B0A9FEDDA0A8DED0A0A9FEDD80A5E
:102780008DED090A9FEDD60A8DED080A00BF5FE1C5
:10279000D64800EB840090ED009A04EBC40000EBF7
:1027A0000410D34901EB801000EB8500D0ED009AB6
:1027B00004EBC40000EB041001F5C85101EB8010DC
:1027C00000EB850090ED008A2AEE0A0A0AEEAA0ABA
:1027D00008EEA80A09EE490A09EEE90A08EE480AD5
:1027E000F0EE000A6AEE200A60EEAA0A80EE201AD5
:1027F00011EE109A484602F055FA41EC1C0BB0EE6F
:102800004C0AF0EE6C0A00F0CFFFB0EE40BAF0EEEA
:1028100060BA51EC1B0B01F023FD064619EE900A3D
:1028200002F040FA41EC1B0B29EE090A08EE080AF7
:1028300008EEE80A10EE101A084602F033FA41ECEE
:102840001D0BB0EE4D0AF0EE6D0A01F0C1FBB0EECB
:1028500040CAF0EE60CAB0EE4B1AF0EE6B1A01F00F
:10286000BFFA8DED040B29EE090A09EEA90A08EE5C
:10287000080A08EEE80A10EE101A084602F012FAEA
:1028800041EC1C0BB0EE4C0AF0EE6C0A01F0A0FB20
:10289000B0EE40BAF0EE60BAB0EE000A2AEE000ADE
:1028A00010EE101A084602F0FDF953EC1B2B01F054
:1028B00039FF41EC1E0B29EE090A09EEA90A08EEC0
:1028C000080A0AEE0A0A0AEEEA0A08EEE80A10EE18
:1028D000101A084602F0E6F953EC1E2B01F09AFD9F
:1028E000CDE900019DED000B00F05EFF8DED020BC8
:1028F0009DED040B53EC102B9DED020B51EC100BD6
:1029000002F0E6F8CDE906019DED060B51EC100B47
:1029100001F0A6FC074619EE100A02F0C3F941ECDB
:102920001C0B18EE100A02F0BDF941EC1D0BB0EEC5
:102930004C1AF0EE6C1AB0EE4D0AF0EE6D0A01F092
:102940004FFA8DED060B29EE090A08EE080A10EE83
:10295000101A084602F0A6F941EC1C0BB0EE4C0A26
:10296000F0EE6C0A01F034FBB0EE40DAF0EE60DA23
:10297000B1EE680A10EE100A02F094F953EC1D2B28
:1029800001F048FD41EC1F0BB0EE4F0AF0EE6F0A6C
:1029900000F00AFF8DED040B9DED060B53EC102BA0
:1029A0009DED040B51EC100B02F092F801F058FC75
:1029B0008046304602F076F99FED4E0B53EC102B1B
:1029C00001F028FD9FED4D0B53EC102B01F0AAFEFA
:1029D00001F078FE04EBC40101EB0411494A02EB5B
:1029E000811141F82500384602F05CF99FED410B5A
:1029F00053EC102B01F00EFD9FED400B53EC102B10
:102A000001F090FE01F05EFE04EBC40101EB041244
:102A10003D4901EB821141F82500404602F042F9A0
:102A20009FED340B53EC102B01F0F4FC9FED330BB6
:102A300053EC102B01F076FE01F044FE04EBC401D0
:102A400001EB0412314901EB821141F825006D1CA4
:102A5000B5F5C87FFFF69CAE15B0BDEC108BBDE898
:102A6000F08310B5002400BF07E09FED1E0A1F4849
:102A700000EB840080ED000A641C042CF5DB0024CC
:102A800008E09FED190A1948103000EB840080ED32
:102A9000000A641C042CF4DB002408E09FED1C0AEF
:102AA0001248203000EB840080ED000A641C042CE6
:102AB000F4DB1849486A0921FFF745FD15494868C4
:102AC0000121FFF740FD134948690521FFF73BFD50
:102AD0001149D1F830060021FFF735FD0D491DE001
:102AE000000000000000824200000042284B00204D
:102AF000586400206F1283C0CA2109400000000002
:102B0000008066402800002028190020283200207C
:102B1000000000C258960020289000200869042177
:102B2000FFF711FDFE49086A0821FFF70CFDFC497B
:102B300088680221FFF707FDF94988690621FFF738
:102B400002FDF749886A0A21FFF7FDFCF449C868CD
:102B50000321FFF7F8FCF249C8690721FFF7F3FCEE
:102B6000EF49C86A0B21FFF7EEFC10BD03B52DED50
:102B7000020B9BB01FED260A8DED190A002018905C
:102B80001D9800287DD118900FE19DED190A1E981F
:102B900000EBC00101EB0010E24901EB8011189835
:102BA00001EB800080ED000ADF491E9851F82000FB
:102BB000119002F077F8CDE914011B9802F072F839
:102BC000CDE90C01199802F06DF8CDE908011C98C7
:102BD00002F068F89FEDD50B53EC102BCDE9040102
:102BE0009DED040B51EC100B01F09CFDCDE90601AD
:102BF0009DED080B53EC102B9DED060B51EC100BCB
:102C000001F090FDCDE90A019DED0C0B53EC102B6A
:102C10009DED0A0B51EC100B01F0FCFBCDE910010E
:102C20009DED1B0A20EE000A8DED090A099802F0BD
:102C300039F8CDE90C01199802F034F8CDE9080112
:102C4000199802F02FF8CDE904011C9802F02AF837
:102C50009FEDB80B53EC102BCDE900019DED000B5F
:102C600051EC100B01F05EFDCDE902019DED040B6E
:102C700053EC102B9DED020B51EC100B01F052FDAB
:102C800000E096E0CDE906019DED080B53EC102B1A
:102C90009DED060B51EC100B01F044FDCDE90A014E
:102CA0009DED0C0B53EC102B9DED0A0B51EC100B12
:102CB00001F0B0FBCDE90E019DED100B53EC102B94
:102CC0009DED0E0B51EC100B01F0FCFACDE9120159
:102CD0009DED140B53EC102B9DED120B51EC100BD2
:102CE00001F0F0FACDE916019DED160B51EC100B39
:102CF00001F0B6FA1E9901EBC10202EB01118F4AF5
:102D000002EB8112189942F82100874910391E9868
:102D100001EB8000D0ED000A9DED190A30EE800A2B
:102D20001E9800EBC00101EB00107E4901EB801101
:102D3000189801EB800080ED000A1B9801F0B2FFAB
:102D40009FED7F0B53EC102BCDE90E019DED0E0B8B
:102D500051EC100B01F0E6FC9FED7B0B53EC102BBC
:102D6000CDE910019DED100B51EC100B01F052FB61
:102D7000CDE91401199801F095FFCDE912019DEDFF
:102D8000140B53EC102B9DED120B51EC100B01F0BA
:102D900099FACDE916019DED160B51EC100B01F0DF
:102DA0005FFA19901898401C189018986428FFF63C
:102DB000ECAE1D9801287DD1002018902BE19DEDEF
:102DC000190A1E9800EBC00101EB0010554901EBF8
:102DD00080111898643001EB800080ED000A5249A0
:102DE0001E9851F82000119001F05CFFCDE914010C
:102DF0001B9801F057FFCDE90C01199801F052FF23
:102E0000CDE908011C9801F04DFF9FED480B53ECF4
:102E1000102BCDE904019DED040B51EC100B01F0DA
:102E200081FCCDE906019DED080B53EC102B9DEDC7
:102E3000060B51EC100B01F075FCCDE90A019DED7C
:102E40000C0B53EC102B9DED0A0B51EC100B01F009
:102E5000E1FACDE910019DED1B0A20EE000A8DED8F
:102E6000090A099801F01EFFCDE90C01199801F03B
:102E700019FFCDE90801199801F014FFCDE904010B
:102E80001C9801F00FFF9FED2B0B53EC102BCDE99D
:102E900000019DED000B51EC100B01F043FCCDE95E
:102EA00002019DED040B53EC102B9DED020B51EC38
:102EB000100B00E0B3E001F035FCCDE906019DED1B
:102EC000080B53EC102B9DED060B51EC100B01F091
:102ED00029FCCDE90A019DED0C0B53EC102B9DED67
:102EE0000A0B51EC100B01F095FACDE90E019DEDA6
:102EF000100B53EC102B9DED0E0B51EC100B01F051
:102F0000E1F9CDE912019DED140B53EC102B9DED71
:102F1000120B51EC100B01F0D5F9CDE9160117E0B9
:102F20005896002058640020484B00200000000004
:102F30000000104000000000000010C0587D00207C
:102F4000000000000000F03F0000000000C05840FA
:102F50009DED160B51EC100B01F082F901461E9805
:102F600000EBC00202EB0010FD4A02EB8012189841
:102F7000643042F82010FB491E9801EB8000D0ED30
:102F8000000A9DED190A30EE800A1E9800EBC00180
:102F900001EB0010F44901EB80111898643001EB4B
:102FA000800080ED000A1B9801F07CFE1FED1C0BD9
:102FB00053EC102BCDE90E019DED0E0B51EC100BD7
:102FC00001F0B0FB1FED200B53EC102BCDE91001ED
:102FD0009DED100B51EC100B01F01CFACDE9140122
:102FE000199801F05FFECDE912019DED140B53EC31
:102FF000102B9DED120B51EC100B01F063F9CDE994
:1030000016019DED160B51EC100B01F029F91990EA
:103010001898401C189018986428FFF6D0AE1D9898
:1030200002287CD10020189013E19DED190A1E980A
:1030300000EBC00101EB0010CB4901EB80111898A7
:10304000C83001EB800080ED000AC64910311E989F
:1030500051F82000119001F025FECDE914011B98D4
:1030600001F020FECDE90C01199801F01BFECDE91D
:1030700008011C9801F016FE1FED540B53EC102BA9
:10308000CDE904019DED040B51EC100B01F04AFB5E
:10309000CDE906019DED080B53EC102B9DED060BC1
:1030A00051EC100B01F03EFBCDE90A019DED0C0B3C
:1030B00053EC102B9DED0A0B51EC100B01F0AAF90B
:1030C000CDE910019DED1B0A20EE000A8DED090AE5
:1030D000099801F0E7FDCDE90C01199801F0E2FD36
:1030E000CDE90801199801F0DDFDCDE904011C9836
:1030F00001F0D8FD1FED710B53EC102BCDE9000151
:103100009DED000B51EC100B01F00CFBCDE9020121
:103110009DED040B53EC102B9DED020B00E09CE0A9
:1031200051EC100B01F0FEFACDE906019DED080B04
:1031300053EC102B9DED060B51EC100B01F0F2FA45
:10314000CDE90A019DED0C0B53EC102B9DED0A0B04
:1031500051EC100B01F05EF9CDE90E019DED100B65
:1031600053EC102B9DED0E0B51EC100B01F0AAF857
:10317000CDE912019DED140B53EC102B9DED120BBC
:1031800051EC100B01F09EF8CDE916019DED160BE8
:1031900051EC100B01F064F801461E9800EBC002E0
:1031A00002EB00106E4A02EB80121898C83042F809
:1031B00020106C491E9801EB8000D0ED000A9DEDB7
:1031C000190A30EE800A1E9800EBC00101EB0010D6
:1031D000654901EB80111898C83001EB800080ED43
:1031E000000A1B9801F05EFD1FEDAB0B53EC102B9A
:1031F000CDE90E019DED0E0B51EC100B01F092FA92
:103200001FEDAF0B53EC102BCDE910019DED100B12
:1032100051EC100B01F0FEF8CDE91401199801F002
:1032200041FDCDE912019DED140B53EC102B9DEDEA
:10323000120B51EC100B01F045F8CDE916019DED94
:10324000160B51EC100B01F00BF819901898401C5C
:10325000189018986428FFF6E8AE1D9803287DD1D1
:103260000020189021E19DED190A1E9800EBC00185
:1032700001EB00103C4901EB8011189800F59670A5
:1032800001EB800080ED000A364910311E9851F89C
:103290002000119001F006FDCDE914011B9801F00A
:1032A00001FDCDE90C01199801F0FCFCCDE9080104
:1032B0001C9801F0F7FC1FEDE30B53EC102BCDE94C
:1032C00004019DED040B51EC100B01F02BFACDE93C
:1032D00006019DED080B53EC102B9DED060B51ECF8
:1032E000100B01F01FFACDE90A019DED0C0B53EC18
:1032F000102B9DED0A0B51EC100B01F08BF8CDE972
:1033000010019DED1B0A20EE000A8DED090A0998B7
:1033100001F0C8FCCDE90C01199801F0C3FCCDE91E
:103320000801199801F0BEFCCDE904011C9801F0D8
:10333000B9FC9FED0E0B53EC102BCDE900019DED78
:10334000000B51EC100B01F0EDF9CDE902019DED00
:10335000040B53EC102B9DED020B0BE0A9E00000D9
:10336000587D0020384B00205864002000000000E9
:10337000000010C051EC100B01F0D4F9CDE90601AA
:103380009DED080B53EC102B9DED060B51EC100B33
:1033900001F0C8F9CDE90A019DED0C0B53EC102B9F
:1033A0009DED0A0B51EC100B01F034F8CDE90E0144
:1033B0009DED100B53EC102B9DED0E0B51EC100BF3
:1033C00000F080FFCDE912019DED140B53EC102BA2
:1033D0009DED120B51EC100B00F074FFCDE91601BE
:1033E0009DED160B51EC100B00F03AFF01461E98B4
:1033F00000EBC00202EB0010A94A02EB8012189801
:1034000000F5967042F82010A6491E9801EB800046
:10341000D0ED000A9DED190A30EE800A1E9800EBEF
:10342000C00101EB0010A04901EB8011189800F5D4
:10343000967001EB800080ED000A1B9801F032FCD1
:103440009FED9A0B53EC102BCDE90E019DED0E0B69
:1034500051EC100B01F066F99FED960B53EC102B1D
:10346000CDE910019DED100B51EC100B00F0D2FFD7
:10347000CDE91401199801F015FCCDE912019DED7B
:10348000140B53EC102B9DED120B51EC100B00F0B4
:1034900019FFCDE916019DED160B51EC100B00F054
:1034A000DFFE19901898401C189018986428FFF6B1
:1034B000DAAE1FB000BD10B500210846DFED7F0A6F
:1034C000B3EE0E0AFFF752FB01210020DFED7C0A6C
:1034D000BAEE040AFFF74AFB03210020DFED780A69
:1034E000BAEE040AFFF742FB02210020DFED740A66
:1034F000BAEE040AFFF73AFB6B4890ED630A714895
:1035000080EDC40A704890ED630A664880ED010AB8
:103510006E4890ED630A634880ED030A6C4890EDB5
:10352000630A604880ED020A00210120DFED640A91
:10353000BAEE040AFFF71AFB01210846DFED5F0A25
:10354000B3EE0E0AFFF712FB03210120DFED5C0A48
:10355000BAEE040AFFF70AFB02210120DFED580A48
:10356000BAEE040AFFF702FB4F4890EDC70A554830
:1035700080EDC40A544890EDC70A4A4880ED010A1C
:10358000524890EDC70A474880ED030A504890ED35
:10359000C70A444880ED020A00210220DFED480AF4
:1035A000BAEE040AFFF7E2FA01210220DFED440A35
:1035B000BAEE040AFFF7DAFA03210220DFED400A2F
:1035C000BAEE040AFFF7D2FA02210846DFED3B0A01
:1035D000B3EE0E0AFFF7CAFA3E4890ED2B0A3948BF
:1035E00080EDC40A3C4890ED2B0A2E4880ED010A7C
:1035F0003A4890ED2B0A2B4880ED030A384890EDAD
:103600002B0A284880ED020A00210320DFED2C0A56
:10361000BAEE040AFFF7AAFA01210320DFED280A17
:10362000BAEE040AFFF7A2FA03210846DFED230AE7
:10363000B3EE0E0AFFF79AFA02210320DFED200A0B
:10364000BAEE040AFFF792FA224890ED8F0A1D485D
:1036500080EDC40A204890ED8F0A124880ED010ADF
:103660001E4890ED8F0A0F4880ED030A1C4890ED2C
:103670008F0A0C4880ED020A10BD00211948C0F8DD
:1036800030160020184948608860C86008614861A9
:103690008861C861086248628862C8627047000039
:1036A000587D0020384B00205864002000000000A6
:1036B0000000F03F0000000000C0584000000C4235
:1036C0000000000028480020986A00201877002099
:1036D000D870002058680020986E0020187B0020C9
:1036E000D87400202890002058960020704770471A
:1036F00070477047704710B500F008F8006810BDBB
:1037000010B5044600F002F8046010BD0048704790
:103710008896002000487047889600207546FFF77D
:10372000F9FFAE4605006946534620F0070085467E
:1037300018B020B5FCF75CFFBDE820404FF0000654
:103740004FF000074FF000084FF0000B21F0070189
:10375000AC46ACE8C009ACE8C009ACE8C009ACE8CC
:10376000C0098D46704710B50446AFF3008020466F
:10377000BDE81040FCF751BD03B40198410000982A
:1037800050EAC12018BF04204A0D18BF40F00100C4
:1037900040F2FF72B2EB515F08BF40F00200012817
:1037A00008BF052002B0704770B5C1482DED020B6F
:1037B0002DED0E8B82B0119D25F000449FEDBEDBF8
:1037C0009FEDBFEB84423EDBA4F140511098A1F184
:1037D0007F6108430FD0BC48844202DC28D1109896
:1037E00030B39DED100B02B0BDEC0E8B02B0BDE806
:1037F000704000F0A6BC9DED100B53EC1D2B51EC5E
:10380000100B00F08FFF9DED100B41EC180B53ECEB
:103810001E2B51EC100B00F085FF53EC182B00F021
:1038200051FD41EC100B02B0BDEC0E8B02B070BD2F
:103830000120FFF765FF02B0BDEC0E8B02B0BDE8C2
:10384000704000F095BCA1489FEDA18B844256DAF0
:103850009DED100BB4F1795F0ADA51EC100BFFF714
:103860008BFF042808BF00F093FC9DED100BDAE7F6
:1038700053EC102B51EC100B00F054FF41EC190BE2
:1038800095480621B0EE490AF0EE690A784400F046
:10389000DCFB53EC192B51EC100B00F043FF41EC17
:1038A0001A0B8E48B0EE490AF0EE690A04217844FA
:1038B00000F0CBFB53EC192B51EC100B00F032FF56
:1038C00053EC182B00F0FEFC41EC100B51EC1A0BE2
:1038D00053EC102B00F09EFDCDE900019DED000B97
:1038E00053EC102B9DED100B51EC100B00F01AFF58
:1038F0009DED101B53EC112B00F0E4FCD2E09DED8C
:10390000100B51EC100B00F05BFC53EC182B01F08A
:1039100007F89FED730BCDE9000153EC102B9DEDE3
:10392000000B51EC100B00F0FDFE41EC190B6E4842
:103930000621B0EE490AF0EE690A784400F085FBF2
:1039400053EC192B51EC100B00F0ECFE41EC1B0B6F
:103950006648B0EE490AF0EE690A0421784400F0A6
:1039600074FB53EC192B51EC100B00F0DBFE53EC05
:10397000182B00F0A7FC41EC1C0B51EC190B00F0CC
:103980002BFC41EC180B5A489FED5BABA04222DCAC
:1039900053EC1C2B51EC1B0B00F03CFDCDE900015E
:1039A0009DED000B51EC180B53EC102B00F0BAFE00
:1039B00053EC182B00F086FC53EC1A2B00F0B2FEEF
:1039C00053EC1D2B01F084F853EC1E2B00F0A8FFE4
:1039D00041EC100B5FE08DED008B002000909DED21
:1039E000000B51EC180B53EC102B00F06BFC9DED11
:1039F000000B41EC1E0B53EC102B51EC100B00F0A4
:103A000091FE53EC192B00F08BFF53EC1E2B00F0B2
:103A100001FD41EC190B53EC1C2B51EC1B0B00F07E
:103A2000F9FC41EC1B0B53EC1A2B51EC190B00F079
:103A300079FE53EC1D2B00F073FF41EC190B53EC96
:103A40001A2B51EC180B00F06DFE53EC1B2B00F001
:103A500069FE53EC192B01F03BF89DED000B41EC96
:103A6000180B53EC1A2B51EC100B00F05BFE9FED82
:103A7000249B53EC192B00F053FF41EC100B51EC3D
:103A8000180B53EC102B01F023F853EC192B00F01A
:103A900047FF41EC100B002D3FF7C5AE51EC100B6A
:103AA00000F0D1FB41EC100BBDE60000000000006F
:103AB0000000F03F00000000075C143326A6913C94
:103AC000182D4454FB21F93F0000F07F0000E03F37
:103AD000000000000000F03F101500001E1500005F
:103AE000000000000000E03F6214000070140000BD
:103AF0003333EF3F000000000000000000000040F2
:103B0000182D4454FB21E93F70B59B482DED020B65
:103B10002DED068B079D25F00044A04218DC974848
:103B2000844202DC0AD1069840B19DED060BBDEC43
:103B3000068B02B0BDE8704000F003BB002DCCBF87
:103B40009FED8F0B9FED900BBDEC068B02B070BD0F
:103B50008F48A04215DD8F48A042D8BF4FF0FF34F8
:103B600058DD9DED060B51EC100BFFF705FE042808
:103B700008BF00F00DFB9DED060BBDEC068B02B0FF
:103B800070BD9DED060B51EC100B00F019FBCDE95B
:103B9000060181489FED828BA0423CDD8248A04215
:103BA0001FDD00249FED82AB9DED060B53EC1A2B1D
:103BB00051EC100B00F086FB9DED060B41EC190B50
:103BC00053EC1A2B51EC100B00F0ACFD53EC182BFE
:103BD00000F07EFF53EC192B00F01CFCCDE9060130
:103BE00049E09DED060B012453EC182B51EC100B12
:103BF00000F068FB9DED060B41EC190B53EC182B04
:103C000051EC100B00F064FF53EC192B00F002FC98
:103C1000CDE906012FE06848A0421FDD02249FED98
:103C2000689B9DED060B53EC192B51EC100B00F02B
:103C300079FD53EC182B00F045FB9DED060B41EC94
:103C4000180B53EC192B51EC100B00F041FF53EC07
:103C5000182B00F0DFFBCDE906010CE09DED060B13
:103C6000032453EC102B9FED580B51EC100B00F07C
:103C7000D1FBCDE906019DED060B53EC102B51EC69
:103C8000100B00F04FFD41EC180B53EC182B00F01B
:103C900049FD41EC190B4E480621B0EE490AF0EE01
:103CA000690A784400F0D1F953EC182B51EC100B51
:103CB00000F038FD41EC180B4648B0EE490AF0EE32
:103CC000690A0521784400F0C0F953EC192B51EC36
:103CD000100B00F027FD41EC100B51EC180B53ECCE
:103CE000102B002C0EDA00F0EDFA9DED061B53ECC4
:103CF000112B00F017FD9DED061B53EC112B00F06E
:103D00000FFE35E000F0DEFA9DED061B53EC112BA3
:103D100000F008FD41EC100B2F48784400EBC40084
:103D200090ED001B51EC100B53EC112B00F0D0FE6A
:103D30009DED061B53EC112B00F0CAFE41EC100B5D
:103D40002648784400EBC40090ED001B51EC100BAA
:103D500053EC112B00F0E4FD41EC100B002DA2BF41
:103D6000BDEC068B02B070BD51EC100B00F06BFA8D
:103D700041EC100B01E70000000010440000F07F50
:103D8000182D4454FB21F93F182D4454FB21F9BF51
:103D90000000DC3F0000203E0000F33F0000000078
:103DA000000000000000F03F0000E63F00000000BF
:103DB0000000000000000040008003400000000000
:103DC000000000000000F83F000000000000F0BF0D
:103DD000B211000068110000F2100000AA100000EB
:103DE00070B56B4E2DED040B2DED028B82B0DDF81E
:103DF0001CC0DDE905235C422CF000411C4341EA74
:103E0000D474049D22F00040B44205D86C422C4387
:103E100040EAD474B4420BD99DED061B9DED040B12
:103E200002B0BDEC028B04B0BDE8704000F093B965
:103E3000ACF14054A4F17F641C430BD0022404EA8B
:103E4000AC7444EAD27405439FED538B9FED542B21
:103E500007D015E09DED040B51EC100B00F0A8F914
:103E600042E0002C11BF012C9DED040B02B0BDEC13
:103E7000028B04BF04B070BD022C38D0032C3BD0A1
:103E80000B439FED491B9FED4A0B0AD0B14218D15D
:103E9000B04209D121F0804120F080400791059087
:103EA0000FE0002A15DA10E0434B7B44002C08BFDA
:103EB00093ED000B0DD0012C10D0022C17D0032C49
:103EC0001AD0B0421DD1002A03DAB0EE410AF0EE5A
:103ED000610A02B0BDEC028B04B070BD93ED000B23
:103EE00051EC100B00F0AFF941EC100BF1E7B0EE24
:103EF000480AF0EE680AECE7B0EE420AF0EE620A19
:103F0000E7E7401A00153C28C8BF8DED000B19DC0F
:103F1000BCF1000FBEBF10F13C0F9FED290B8DEDE2
:103F2000000B0FDB9DED060B53EC102B9DED040BEE
:103F300051EC100B00F06EFA00F042F900F038F985
:103F4000CDE90001002C08BF9DED000BC1D0012C74
:103F500010D0022C9FED1C0B53EC102B9DED000B91
:103F600051EC100B0DD000F0B3FD53EC182B00F00A
:103F7000AFFDB9E7019880F0004001909DED000B86
:103F8000A7E700F0A5FD53EC182B00F0C9FCABE748
:103F90000000F07F00000000182D4454FB21094070
:103FA000182D4454FB2109C0182D4454FB21F9BF9E
:103FB000182D4454FB21F93FDA0F000000000000E7
:103FC0000000000000000000075C143326A6A13C9E
:103FD00000B52DED048BB0EE409AF0EE609A83B000
:103FE00051EC190B00F0A8FC41EC180B18EE100A6C
:103FF00018EE901A8DED008B002818BF01200843A1
:1040000020F00040C0F17F6000F1E040C00F14D00C
:1040100019EE101A19EE900A8DED009B002918BFB9
:104020000121084320F00040C0F17F6000F1E04032
:10403000C00F04BF0120FFF763FBB0EE480A03B0D6
:10404000F0EE680ABDEC048B00BD70B504462DEDA2
:10405000028B4D1E00EBC500B0EE408AF0EE608A88
:1040600090ED000B35F0060017D053EC182B51ECF7
:10407000100B00F057FB41EC100B6D1E04EBC5005C
:1040800090ED001B51EC100B53EC112B00F01AF9C2
:1040900041EC100B35F00600E7D1022D36D0042D8F
:1040A0001CD0062D1CBFBDEC028B70BD53EC182B31
:1040B00051EC100B00F036FB94ED0A1B53EC112B66
:1040C00000F000F953EC182B00F02CFB94ED081BCA
:1040D00053EC112B00F0F6F841EC100B53EC182BBD
:1040E00051EC100B00F01EFB94ED061B53EC112B52
:1040F00000F0E8F853EC182B00F014FB94ED040BDF
:1041000053EC102B00F0DEF841EC100B53EC182BA5
:1041100051EC100B00F006FB94ED021B53EC112B3D
:1041200000F0D0F853EC182B00F0FCFA94ED001BD3
:1041300053EC112B00F0C6F8BDEC028B41EC100BD8
:1041400070BD10B553EC102B51EC100B00F0BAF809
:1041500041EC100B10BD10B553EC112B51EC100BB2
:1041600000F0B0F841EC100B10BD000000000000A2
:104170009FED050B10B553EC102B51EC100B00F01C
:1041800049F941EC100B10BD0000000000000000D8
:104190009FED050B10B553EC102B51EC100B00F0FC
:1041A000C1FA41EC100B10BD00000000000000102F
:1041B00010B541EC100BFFF7A7FC51EC100B10BD34
:1041C00082B0CDE9000121F0004001909DED000B8F
:1041D00002B051EC100B704700B52DED048B83B08D
:1041E00041EC190B00F0A8FB41EC180B18EE100A7B
:1041F00018EE901A8DED008B002818BF012008439F
:1042000020F00040C0F17F6000F1E040C00F14D00A
:1042100019EE101A19EE900A8DED009B002918BFB7
:104220000121084320F00040C0F17F6000F1E04030
:10423000C00F04BF0120FFF763FA51EC180B03B065
:10424000BDEC048B00BD81F00041704780F0004060
:10425000704721F00041704720F000407047000097
:1042600021F00042A2F16052B2F5801F01F000433C
:1042700028BFD2F17F6C0BD95FEA001C43EAC2026F
:1042800042EB507018BF704728BF20F00100704704
:10429000B2F5801FBCBF184670474FEA410C1CF5B1
:1042A000001F02D2084600F073BD70B500F0E4FABA
:1042B00000000089FFF7F6BF4FF00040A0F5800036
:1042C0007047000010B591EA030F48BF83F0004328
:1042D00000F10684841A71EB030C05D2121943EB2A
:1042E0000C03001B61EB0C01DFF824E14FEA1154D1
:1042F000A4EB135C1EEA430F18BF9EEA445F73D021
:1043000023EA0E03DCF1200E21EA045143F480136A
:1043100032D322FA0CFE10EB0E0023FA0CFE41EB16
:104320000E01CCF1200E03FA0EFE10EB0E0051F13F
:104330000001B1F5801FCCF1200E32D201EB045107
:1043400012FA0EF2BDE8104058BF7047401C38BF4B
:104350005FEA420218BF7047002814BF20F0010036
:1043600041F100014FEA410313F5001F38BF7047C8
:10437000A1F1C04100F0CEBA012A43EB0302ACF137
:10438000200CDCF11F0E32BF4FF0000E23FA0CF3AD
:1043900010EB030041EB0451B4EB115FD0D0A1EB63
:1043A000045101F5801149085FEA300001EB045126
:1043B0000ED350F1000038BF12FA0EFE08D1BDE84E
:1043C0001040C9E7401C38BF5FEA4202CAD1C3E7C8
:1043D000BDE810404FEA410313F5001F38BF704796
:1043E000A1F1C04100F096BA9EEA445F08D011EAFC
:1043F0005E0FBDE8104004BF01F00041002070478F
:10440000BDE8104070B500F037FA00BF64FBBE3E57
:104410000000E0FF2DE9C04130B4DFF8A0C23CEA63
:10442000111418BF3CEA131400F0EC8081EA030574
:104430001CEA111444EAD57418BF1CEA131500F0E5
:10444000C780A4EB05044FF0004545EAC12145EAC9
:10445000C32341EA505143EA525304F17F74994215
:1044600004F500344FEAC0204FEAC22208BF904250
:1044700000F09C804FEA13650FF24016765D4FEA1C
:10448000134506FB05F7C7F1807706FB07F74FEAF0
:10449000D737A7FB03687642C8F58038A7FB06CE5E
:1044A00038BFA8F1010807FB08E64FF0000EA6FB95
:1044B000028CE6FB03CEDCF1000CCEF1004E38BFDF
:1044C000AEF1010EA6FB0C584FF000074FF00005AF
:1044D000E6FB0E87A1FB08C6A0FB07CE16EB0E0677
:1044E00045F10005E1FB076515F1E04E7EBFA4F53F
:1044F00080345FEA46066D4116F1800745F10005FC
:104500004FEA17274FEA066647EA0567A6F1DE4637
:10451000B6F1805F4FEA15251FD9384624F0010C0B
:1045200005EBC471BCF1FE6F01EB0C1102D8F0BCBD
:10453000BDE8008124425CBF01F5801E9EEAC47F75
:1045400002D4F0BCBDE80081244238D4F0BCA1F113
:10455000C041BDE8004100F0DDB94FEAD22242EA95
:1045600043524FEAD323A7FB02864FEAD02040EA0A
:10457000415007FB03661EEA0E0F4FEAD12105FBEF
:10458000026658BFA6EB0056B6EB00564FEA520E35
:104590004EEAC37E18EB0E0E56EB530EBDD518EB4C
:1045A00002085E417F1C55F10005B6E74FF4801507
:1045B0004FF000074FF000064FF00008ADE7F0BCE9
:1045C0004FF0000001F1C04101F00041BDE8008161
:1045D00011EA0C1F0CEA131500D00CE013EA0C1FB3
:1045E00000F025804FF00000F0BC81EA030101F0EB
:1045F0000041BDE80081F0BCBDE8004181EA030153
:1046000000F088B9F0BCBDE8004170B500F034F9A5
:10461000097EFC3E00F007B881EA03014FF000007C
:1046200001F00041704781EA030100F073B9F0BC6A
:10463000BDE800414FF0000021497047FFFDFBF944
:10464000F7F5F4F2F0EEEDEBE9E8E6E4E3E1E0DEC5
:10465000DDDBDAD8D7D5D4D3D1D0CFCDCCCBCAC837
:10466000C7C6C5C4C2C1C0BFBEBDBCBBBAB9B8B75E
:10467000B6B5B4B3B2B1B0AFAEADACABAAA9A8A851
:10468000A7A6A5A4A3A3A2A1A09F9F9E9D9C9C9B1F
:104690009A999998979796959594939392919190CA
:1046A0008F8F8E8E8D8C8C8B8B8A8989888887875B
:1046B0008685858484838382828181800000FF07D0
:1046C0000000F87F4FEA41034FEA5353A3F580639C
:1046D000D3F11E03C8BFD3F1210C0CDD4FF0004213
:1046E00042EAC12242EA505232FA03FC8CEAE17CEF
:1046F000ACEBE1707047102BC4BF0020704703F58E
:10470000787CBCF1FF3F04D06FF0004282EA2100C8
:10471000704770B500F0B0F84992248000207047CF
:10472000F2E70000DFF848C170B51CEA111E1EBF99
:104730001CEA13159EEA0C0F95EA0C0F00F06F802F
:1047400081EA030423EA4C134EEAD47E21EA4C1199
:1047500041F4801143F48013AE44A1FB024CA0FB52
:104760000365AEF17F7E361955EB0C05A1FB034CBA
:104770004CF10003A0FB021C16EB0C06654153F143
:104780000003094218BF46F0010613F4007F0BD165
:104790004FEA03314FEA0530340341EA155140EA4C
:1047A00016506FF003020AE04FEAC3214FEAC5201A
:1047B000F40241EA555140EA56506FF0020202EB12
:1047C0002E4201EB025585EACE710AD05FEA440C15
:1047D00018BF24F0004450F1000041F1000120EA2C
:1047E000D47040F2FE7C624500D270BDA84214BF76
:1047F0004FF080444FF04044002E08BF0024BEF12B
:10480000806FA8BFA1F1C041BDE8704080F28280F6
:104810004FF0000001F1C04101F0004170479EEAF5
:104820000C0F0CEA131518BF95EA0C0F06D04FF0C9
:10483000000081EA030E0EF0004170BD00F01CF88C
:104840008900013E00F007B800F009B84FEA430CB8
:104850005FEA5C5C08D081EA030100F05BB84FEAD4
:10486000410C5FEA5C5CF6D14FF0000001497047F3
:104870000000FF070000F87F0EF1020E2EF0030E7D
:104880005EF8046B364205D4012A43EB030515F5A7
:10489000001F12D8012841EB010C1CF5001F0CD899
:1048A0000ED14FEAD17C15F5001F0CEB4C0C0CF12E
:1048B000020C08BF4CEBD37C04E04FF0080C01E085
:1048C0004FEAD37C0CEB4C0526FA05F606F00706FA
:1048D000B6F1040C06D20EEB860CBDE870404CF02D
:1048E000010C6047DFE80CF0090B02024FF00041B9
:1048F0004FF00000A1F5002170BD194610460128B7
:1049000051EB010418BFD4F5001484BF002001F05E
:10491000004170BD0808A0F500114FEA3101704751
:1049200091EA030F10B581F000413FF5D3AC83F05D
:10493000004300F0D5B800002DE9F04101F5801CDE
:10494000BCF5001FC0F2A9804FEA115C21EA0C51AE
:104950000CF1FD0C41F480115FEA5C0C0CF5C07C9D
:1049600001D34000494130A4890241EA90518702B5
:104970008E0E0A0CA45D04FB04F602FB06F6C6F1DB
:104980004046A4FB0662F60D46EA422606FB06F404
:10499000A4FB01235242C3F1404338BF5B1EA6FB78
:1049A00002420024E6FB0324D20B42EA4446A6FB63
:1049B0000623A1FB02E2A3FB07E4E3FB614264429E
:1049C000C2F1404E38BFAEF1010EA6FB04234FF0FA
:1049D0000002E6FB0E32A2FB03463400E2FB6264F7
:1049E000A1FB06E6A4FB07E8E4FB61687642C8F198
:1049F000405838BFA8F10108A2FB06E4A3FB08E574
:104A0000E2FB6854A1FB05E6A7FB04E8E1FB648632
:104A100018F1200556F10006A809A8F11B08B109F4
:104A200008F03F08B8F10A0F40EA86601CD901EB94
:104A30000C51BDE8F08100BFFCF5EEE8E2DDD8D313
:104A4000CFCBC7C3C0BDB9B6B4B1AEACA9A7A5A3FF
:104A5000A19F9D9B9A9896959392908F8D8C8B8910
:104A60008887868584838281A0FB006800FB01F231
:104A700008EB4208B8EB872807D5341858EB010437
:104A8000D5D5401C51F10001D1E7341A78EB01046F
:104A9000CDD4401E71F10001C9E75FEA4C0C5FEA1A
:104AA0009C5C0DD105D34FF0000001F00041BDE842
:104AB000F081BDE8F04170B5FFF7DEFE6DDBFFBEB3
:104AC000BDE8F0414FF00000004970470000F87F5A
:104AD00010B591EA030F48BF83F000433FF5FAABEE
:104AE000841A71EB030C07D212198CF0004C43EBC3
:104AF0000C03001B61EB0C01DFF8A4E14FEA115439
:104B0000A4EB135C1EEA430F18BF9EEA445F00F05B
:104B1000B08023EA6E03524221EA0451C3EB6E03D4
:104B200038BF5B1EDCF1200E25D322FA0CFE10EB01
:104B30000E0043FA0CFE41EB0E01CCF1200E03FAFD
:104B40000EFE10EB0E0051F10001CCF1200E29D425
:104B500012FA0EF201EB0451BDE8104058BF704745
:104B6000401C1CBFB2F1004F704700280CBF491C0D
:104B700020F00100704712EB020E43EB030218BF56
:104B80004FF0010E4EEA4202ACF1200CDCF11E0E99
:104B900054D943FA0CFE10EB0E0051F1FF31CCF169
:104BA0001E0ED5D50EF1010E12FA0EFE404141EB5C
:104BB000010101EB445C5FEA5C5C10D910EBDE7034
:104BC00001EB045138BFBEF1004FBDE8104018BFE3
:104BD000704700280CBF491C20F00100704730D2FC
:104BE0004FEAD42C11F5001124F400641BD0B1FA63
:104BF00081F20B3AA41AA41ED2F12003914030FA9C
:104C000003F31943904001EBCC71002C01EB0451EC
:104C1000BDE81040A8BF704701F1C0414FF000004F
:104C200001F000417047B0FA80F310FA03F100D1AF
:104C300010BDE41A173C4805C90AE4E701EB04512A
:104C400010BD491001EB0451BDE810404FEA30009F
:104C500002E04FF0000170474A0008BF0042F8D060
:104C6000B2F5001F28BF704701F000414FF000006F
:104C700070479EEA445F07D011EA5E0FBDE810401E
:104C800004BF002100207047BDE8104070B5FFF759
:104C9000F3FD00BF40DFF63E83F000411046704751
:104CA0000000E0FF43004FEAD30C4FEA3C0C4340C6
:104CB0001FBF40070CF1605113F0FE4F70471CF00E
:104CC000006F03D100200CF0004170470CF000434E
:104CD00043EA507010B540EACC0000F00EF800BF77
:104CE000000000924FEA0001FFF714BE4FF00041B0
:104CF0004FF00000A1F5002170470EF1020E2EF0DA
:104D0000030E5EF8044B244204D44FEA4102B2F190
:104D10007F4F11D84FEA4003B3F17F4F0CD80ED12B
:104D20004FEAD07CB2F17F4F0CEB4C0C0CF1020C33
:104D300008BF4CEBD17C04E04FF0080C01E04FEAD7
:104D4000D17C0CEB4C0324FA03F404F00704B4F117
:104D5000040C06D20EEB840CBDE810404CF0010CA4
:104D60006047DFE80CF0070802024FF00040A0F5B2
:104D7000800010BD0846420018BFD2F1807288BF83
:104D800000F0004010BD4FF04070E1EE100A704797
:104D9000FF2141EAD050C00570470000000000002C
:104DA000555555555555C53F7D6FEB0312D6D4BFAC
:104DB0005544880E55C1C93F3B8F68B52882A4BFB2
:104DC00088B20175E0EF493F09F7FD0DE13D023F73
:104DD0004B2D8A1C273A03C0C88A599CE52A0040FB
:104DE00059018D1B6C06E6BF82922EB1C5B8B33F48
:104DF0004FBB610567ACDD3F182D4454FB21E93FF3
:104E00009BF681D20B73EF3F182D4454FB21F93FE1
:104E1000E2652F227F2B7A3C075C143326A6813C67
:104E2000BDCBF07A8807703C075C143326A6913C12
:104E3000C4EB98999999C9BF711623FEC671BCBF7E
:104E40006D9A74AFF2B0B3BF9AFDDE522DDEADBFE6
:104E50002F6C6A2C44B4A2BF0D5555555555D53FFE
:104E6000FF8300922449C23F6E204CC5CD45B73F19
:104E7000513DD0A0660DB13FEB0D76244B7BA93F91
:104E800011DA22E33AAD903F00000000000000007C
:104E9000B04E00080000002028000000C4010008F7
:104EA000D84E000828000020C09C0000E001000847
:104EB000007A030A00000000000000000102030461
:104EC00006070809000000000102030401020304B0
:084ED0000607080900000000BC
:040000050800018965
:00000001FF
