:020000040800F2
:1000000030B7002061070008270200082902000815
:100010002D0200083102000835020008000000002F
:10002000000000000000000000000000390200088D
:100030003B020008000000003D0200083F020008EB
:100040007B0700087B0700087B0700087B07000888
:100050007B0700087B0700087B0700087B07000878
:100060007B0700087B0700087B0700087B07000868
:100070007B0700087B0700087B0700087B07000858
:100080007B0700087B0700087B0700087B07000848
:100090007B0700087B0700087B0700087B07000838
:1000A0007B0700087B0700087B0700087B07000828
:1000B0007B0700087B0700087B0700087B07000818
:1000C0007B0700087B0700087B0700087B07000808
:1000D0007B0700082D2400087B0700087B07000829
:1000E0007B0700087B0700087B0700087B070008E8
:1000F0007B0700087B0700087B0700087B070008D8
:100100007B0700087B0700087B0700087B070008C7
:100110007B0700087B0700087B0700087B070008B7
:100120007B0700087B0700087B0700087B070008A7
:100130007B0700087B0700087B0700087B07000897
:100140007B0700087B0700087B0700087B07000887
:100150007B0700087B0700087B0700087B07000877
:100160007B0700087B0700087B0700087B07000867
:100170007B0700087B0700087B0700087B07000857
:100180007B0700087B07000800F002F800F03CF84D
:100190000AA090E8000C82448344AAF10107DA45E2
:1001A00001D100F031F8AFF2090EBAE80F0013F0F8
:1001B000010F18BFFB1A43F00103184720D90000B4
:1001C00040D90000103A24BF78C878C1FAD8520745
:1001D00024BF30C830C144BF04680C6070470000C1
:1001E0000023002400250026103A28BF78C1FBD840
:1001F000520728BF30C148BF0B6070471FB502F0DF
:1002000047FC1FBD10B510BD02F00FFC1146FFF7F3
:10021000F5FF00F01DF902F02DFC03B4FFF7F2FF2B
:1002200003BC02F0A3F8704700BFFEE700BFFEE783
:1002300000BFFEE700BFFEE770477047704770479A
:100240000CB50020019000907648006840F48030A2
:100250007449086000BF7348006800F400300090E3
:100260000198401C0190009818B90198B0F5A04F72
:10027000F1D16C48006800F4003010B1012000900A
:1002800001E0002000900098012846D165484030E8
:10029000006840F08050634940310860624800685F
:1002A00040F44040604908605E48083000685D499D
:1002B000083108600846006840F4004008600846BD
:1002C000006840F4A05008605848091F0860081FE3
:1002D000006840F08070091F086000BF5148006846
:1002E00000F000700028F9D040F205705049086015
:1002F0004C480830006820F003004A490831086083
:100300000846006840F00200086000BF4548083019
:10031000006800F00C000828F8D10CBD10B5454865
:10032000006840F47000434908603E48006840F0AF
:1003300001003C49086000203A490831086039480A
:1003400000683D490840374908603C48091D08607D
:10035000081F006820F48020091F08600020314930
:100360000C310860FFF76CFF4FF0006031498039B5
:10037000086010BD70B50020002202230024022175
:10038000284D08352D6805F00C0020B1042806D052
:10039000082834D107E02A4D2A4E356033E02A4D33
:1003A000284E35602FE01F4D2D1D2D68C5F380545C
:1003B0001C4D2D1D2D6805F03F0154B1224DB5FB9C
:1003C000F1F5184E361D3668C6F3881605FB06F2A1
:1003D00009E01B4DB5FBF1F5124E361D3668C6F32C
:1003E000881605FB06F20F4D2D1D2D68C5F301453E
:1003F0006D1C6B00B2FBF3F5124E356003E0104D3F
:10040000104E356000BF00BF064D08352D68C5F39E
:1004100003150E4E705D0B4D2D68C540094E3560BD
:1004200070BD0000003802400070004019544007C1
:10043000003C024088ED00E0FFFFF6FE1030002493
:100440000024F4000000002040787D01040000201A
:10045000ADF5314D00244FF46B62B4494AF250209F
:10046000684402F0ACFA4FF46B62B14949F2A03033
:10047000684402F0A4FA4FF46B62AE4948F2F040CF
:10048000684402F09CFA4FF46B62AB4947F240605B
:10049000684402F094FA4FF46B62A84946F29070F7
:1004A000684402F08CFA4FF46B62A54945F6E0000F
:1004B000684402F084FA4FF46B62A24944F630209B
:1004C000684402F07CFA4FF46B629F490DF56E5060
:1004D00002F075FA4FF46B629C4942F6D0406844D2
:1004E00002F06DFA4FF46B6299490DF5F15002F08C
:1004F00066FA4FF46B6297490DF5776002F05FFA88
:100500004FF46B62944930A802F059FA02F068F98E
:100510004FF4E13001F038FFA72142F20F7001F0F3
:100520008BFF02F0C4F8A82001F09EFE02F005FA4D
:1005300002F088F94FF47A7001F0F8FEF5E000243B
:10054000EFE00DF5F15101EB840191ED000A8349D3
:10055000D1ED090A30EE200ABDEEC00A10EE100AF5
:10056000092102F0B6F849F2A031694401EB840197
:1005700091ED000AB1EE400A7849D1ED010A30EE62
:10058000200ABDEEC00A10EE100A012102F0A1F807
:1005900045F6E001694401EB840191ED000A6F49E1
:1005A000D1ED050A30EE200ABDEEC00A10EE100AA9
:1005B000052102F08EF84AF25021694401EB8401D2
:1005C00091ED000A65497039D1ED1C0A30EE200A20
:1005D000BDEEC00A10EE100A002102F07AF846F2D1
:1005E0009071694401EB840191ED000AB1EE400A7B
:1005F0005A49D1ED040A30EE200ABDEEC00A10EED1
:10060000100A042102F065F842F6D041694401EB7A
:10061000840191ED000AB1EE400A5049D1ED080A7B
:1006200030EE200ABDEEC00A10EE100A082102F0DA
:1006300050F848F2F041694401EB840191ED000A61
:100640004649D1ED020A30EE200ABDEEC00A10EE96
:10065000100A022102F03DF844F63021694401EB12
:10066000840191ED000AB1EE400A3C49D1ED060A41
:1006700030EE200ABDEEC00A10EE100A062102F08C
:1006800028F80DF5776101EB840191ED000A3349FB
:10069000D1ED0A0A30EE200ABDEEC00A10EE100AB3
:1006A0000A2102F016F847F24061694401EB840127
:1006B00091ED000AB1EE400A2849D1ED030A30EE6F
:1006C000200ABDEEC00A10EE100A032102F001F864
:1006D0000DF56E5101EB840191ED000A1F49D1ED3A
:1006E000070A30EE200ABDEEC00A10EE100A0721FC
:1006F00001F0EFFF30A901EB840191ED000AB1EEAA
:10070000400A1649D1ED0B0A30EE200ABDEEC00AB0
:1007100010EE100A0B2101F0DCFF0F2001F006FEA5
:10072000641CB4F56B7FFFF60CAF08E79C2A000849
:100730004C390008FC470008AC5600085C6500080E
:100740000C740008BC8200086C9100081CA0000812
:10075000CCAE00087CBD00082CCC000898B000206E
:100760000948804709480047FEE7FEE7FEE7FEE745
:10077000FEE7FEE7FEE7FEE7FEE7FEE70448054981
:10078000054A064B704700001D0300088901000858
:1007900030B1002030B7002030B3002030B300204B
:1007A00032490143324A1160704770B5002100237D
:1007B0000F22C4781CB32E4C246804F4E064C4F502
:1007C000E064C4F30721C1F10404E3B20A414478B0
:1007D0009C40E1B28478144021430C07210E254C43
:1007E00005786155047804F01F050124AC400578B4
:1007F0006D11AD0005F1E025C5F8004109E0047870
:1008000004F01F050124AC401B4D0678761145F815
:10081000264070BD194A0A400243154B1B1F1A603F
:10082000704739B1124A121D12680243104B1B1D4A
:100830001A6006E00E4A121D126882430C4B1B1D03
:100840001A607047042808D14FF0E021096941F08F
:1008500004014FF0E022116107E04FF0E021096947
:1008600021F004014FF0E022116170470000FA0509
:100870000CED00E000E400E080E100E080FFFF1FFD
:1008800010B504469848844208D10121084600F07A
:1008900086FB0021012000F082FB76E09348844231
:1008A00008D10121022000F07AFB0021022000F093
:1008B00076FB6AE08E48844208D10121042000F0D2
:1008C0006EFB0021042000F06AFB5EE08948844250
:1008D00008D10121082000F062FB0021082000F06F
:1008E0005EFB52E08448844208D10121102000F0D0
:1008F00056FB0021102000F052FB46E07F48844266
:1009000008D10121202000F04AFB0021202000F026
:1009100046FB3AE07A48844208D10121402000F0A9
:100920003EFB0021402000F03AFB2EE07548844257
:1009300008D10121802000F032FB0021802000F04E
:100940002EFB22E07048844208D10121801500F07E
:1009500026FB0021A01500F022FB16E06B48844224
:1009600008D10121401500F01AFB0021601500F0AC
:1009700016FB0AE06648844207D10121001500F009
:100980000EFB0021201500F00AFB10BDF0B50A4651
:1009900000210023002400BF3DE0012505FA01F3FA
:1009A000156805EA03049C4234D105684F0003260C
:1009B000BE40B543056015794E00B5400668354325
:1009C00005601579012D02D01579022D16D18568A3
:1009D0004F000326BE40B543856055794E00B540B3
:1009E000866835438560456801268E40B54345607D
:1009F000456896798E40B6B235434560C5684F006C
:100A00000326BE40B543C560D5794E00B540C668E3
:100A10003543C560491C1029BFD3F0BD4FF6FF71A7
:100A200001600021017141718171C171704708B588
:100A30004FF480320092009A0A430092009AC261F9
:100A4000C161009AC261C2690092C269009208BD88
:100A50000246002013690B400BB1012000E000208A
:100A600070470146086980B270470246002053690A
:100A70000B400BB1012000E000207047014648699F
:100A800080B2704701837047418370470AB1018388
:100A900000E0418370474161704742694A404261CA
:100AA0007047F0B5002300244D07ED0E02FA05F360
:100AB000CE1000F1200555F826504E07F70E0F26F0
:100AC000BE40B543CF1000F1200646F82750CE10A7
:100AD00000F1200555F8265045EA0304CE1000F138
:100AE000200545F82640F0BD000002400004024009
:100AF00000080240000C02400010024000140240B6
:100B000000180240001C0240002002400024024065
:100B100000280240F948006840F00100F7490860E9
:100B20000020F64908310860F4480068F44908409C
:100B3000F2490860F348091D0860F348EF49843121
:100B40000860F0481038091D0860EC48006820F47F
:100B50008020EA4908600020E8490C310860E74934
:100B60008C31086070470021E44A921C11701146D4
:100B70000870704710B501460022002300204A117A
:100B8000012A02D1DD4C236808E0022A03D1DB4CA4
:100B90007034236802E0D94C7434236801F01F02DA
:100BA000012494401C400CB1012000E0002010BD45
:100BB00038B5002000900024002500BF3120FFF749
:100BC000D9FF05460098401C00900098B0F5A04F52
:100BD00001D0002DF2D03120FFF7CCFF08B1012465
:100BE00000E00024204638BD01460020C34A1068BA
:100BF00020F0F80040EAC10010607047C349086067
:100C000070470021BD4A703211701170012802D066
:100C100004280AD104E00121B84A7032117005E0BD
:100C20000521B64A7032117000E000BF00BF704766
:100C3000B7490860704770B5049C41EA82150126E7
:100C4000C6EB530645EA0645054345EA0465AB4E47
:100C5000361D356070BDAD4908667047820142EAB5
:100C60000172A64B84331A607047A84988667047A2
:100C700010B5830143EA016343EA02739F4C883451
:100C8000236010BDA14908677047A049C864704738
:100C900002460020994B0833186820F0EC6042EAC5
:100CA00001031843954B0833186070470246002033
:100CB000924B0833186820F0784042EA0103184349
:100CC0008E4B083318607047014600208B4A08326B
:100CD000106820F003000843106070478748083010
:100CE000006800F00C00704701460020834A08327B
:100CF000106820F0F00008431060704701460020A3
:100D00007E4A0832106820F4E050084310607047B3
:100D100001460020794A0832106820F4604040EA19
:100D2000C10010607047F0B50021002200240225A8
:100D300000260223714F08373F6807F00C0121B1EC
:100D4000042905D0082937D105E0724F076036E045
:100D5000714F076033E0694F3F1D3F68C7F380560E
:100D6000664F3F1D3F6807F03F036EB16A4FB7FB08
:100D7000F3F7DFF888C10CF1040CDCF800C0CCF309
:100D8000881C07FB0CF40CE0624FB7FBF3F7DFF8AD
:100D90006CC10CF1040CDCF800C0CCF3881C07FB20
:100DA0000CF4564F3F1D3F68C7F301477F1C7D0081
:100DB000B4FBF5F7076002E0564F076000BF00BFC5
:100DC0004E4F08373F6807F0F0010909534F7A5C2E
:100DD0000768D7404760494F08373F6807F4E0513C
:100DE000890A4E4F7A5C4768D7408760434F08377F
:100DF0003F6807F46041490B484F7A5C4768D74029
:100E0000C760F0BD002100F44072B2F5407F0AD106
:100E10003A4A0832116821F4F811414A024011435C
:100E2000364A08321160354A70321268C0F30B033B
:100E30001A43324B70331A607047354944390860A1
:100E40007047334940390860704736490860704739
:100E500001460020294A8C32106820F01F004A1EEB
:100E60001043264A8C321060704701460020234A06
:100E70008C32106820F4F8504A1E40EA02201F4AC3
:100E80008C3210607047014600201C4A8C3210687A
:100E900020F4401008431060704701460020174AB4
:100EA0008C32106820F440000843106070470146FF
:100EB0000020124A8C32106820F440300843106041
:100EC000704719490860704739B10C4A30321268CE
:100ED00002430A4B30331A6006E0084A3032126887
:100EE0008243064B30331A607047F9B1034A3432FB
:100EF00012680243014B34331A601CE00038024090
:100F0000FFFFF6EA103000240030002000004742C6
:100F1000800E47420024F40040787D011400002038
:100F2000FFFCFF0F5C014742E01147428F4A126805
:100F300082438E4B1A60704739B18C4A121D126879
:100F400002438A4B1B1D1A6006E0884A121D126874
:100F50008243864B1B1D1A60704739B1834A0C329D
:100F600012680243814B0C331A6006E07F4A0C3250
:100F7000126882437D4B0C331A60704739B17B4A4B
:100F8000103212680243794B10331A6006E0774A38
:100F9000103212688243754B10331A60704739B1B2
:100FA000724A243A12680243704B243B1A6006E0EE
:100FB0006E4A243A126882436C4B243B1A60704795
:100FC00039B16A4A203A12680243684B203B1A60E2
:100FD00006E0664A203A12688243644B203B1A605E
:100FE000704739B1614A1C3A126802435F4B1C3B9F
:100FF0001A6006E05D4A1C3A126882435B4B1C3B58
:101000001A60704739B1594A143A12680243574B73
:10101000143B1A6006E0554A143A12688243534B57
:10102000143B1A60704739B1504A103A12680243B3
:101030004E4B103B1A6006E04C4A103A126882434D
:101040004A4B103B1A60704739B1484A1C3212684B
:101050000243464B1C331A6006E0444A1C321268B5
:101060008243424B1C331A60704739B13F4A2032E9
:10107000126802433D4B20331A6006E03B4A20329F
:1010800012688243394B20331A60704739B1374AAE
:10109000243212680243354B24331A6006E0334A87
:1010A000243212688243314B24331A60704739B1BD
:1010B0002E4A2C32126802432C4B2C331A6006E065
:1010C0002A4A2C3212688243284B2C331A6070470C
:1010D00039B1264A303212680243244B30331A6049
:1010E00006E0224A303212688243204B30331A60C5
:1010F0007047012808D11D493C31096841F00801B9
:101100001A4A3C32116007E018493C31096821F065
:101110000801164A3C321160704739B1134A273A28
:1011200012780243114B273B1A7006E00F4A273A08
:10113000127882430D4B273B1A7070470B484030A2
:10114000006840F0807009494031086070470146EE
:101150000020064A283A12680A400AB1012000E03D
:101160000020704701492639087070473438024022
:1011700010B50446FA48844208D101211020FFF737
:1011800052FF00211020FFF74EFF57E0F548844240
:1011900009D101214804FFF735FF00214FF4003049
:1011A000FFF730FF4AE0F048844209D1012188046A
:1011B000FFF728FF00214FF48020FFF723FF3DE0D9
:1011C000EA48844209D10121C804FFF71BFF00212E
:1011D0004FF40020FFF716FF30E0E548844209D1C4
:1011E00001210805FFF70EFF00214FF48010FFF7E3
:1011F00009FF23E0DF48844208D101212020FFF7C6
:1012000012FF00212020FFF70EFF17E0DA4884428A
:1012100009D101218807FFF7F5FE00214FF080403A
:10122000FFF7F0FE0AE0D548844207D101214005CE
:10123000FFF7E8FE00216005FFF7E4FE10BD2DE991
:10124000FF4705460E460024A14600BFA046B089D0
:1012500000B100BF2C8A24F44054F08804432C824F
:10126000AC8941F20C608443B088318908437189AC
:1012700008430443AC81AC8A24F44074B08904432D
:10128000AC826846FFF74FFDB548854202D0B948A9
:10129000854202D1DDF80C9001E0DDF80890A889C4
:1012A00000F4004040B109EBC90000EB09103168BF
:1012B0004900B0FBF1F707E009EBC90000EB0910AA
:1012C00031688900B0FBF1F76420B7FBF0F004014E
:1012D0002009642101FB1078A88900F4004040B186
:1012E000322000EBC800B0FBF1F000F0070004432F
:1012F00008E0322000EB08106421B0FBF1F000F0B0
:101300000F0004432C81BDE8FF874FF416510160A4
:1013100000218180C18001810C21418100218181D6
:10132000704710B502460020108A20F470600B88C8
:101330004C8823438C882343CC8823431843108252
:1013400010BD0021018041808180C180704721B1A2
:10135000828942F40052828104E082894DF6FF7353
:101360001A4082817047028B02F47F420283028B13
:101370000A430283704721B1828942F4004282818C
:1013800003E08289C2F30E028281704721B1828A12
:1013900042F40062828204E0828A4FF2FF731A40B4
:1013A00082827047C1F308028280704701468888B4
:1013B000C0F308007047028A4FF6F0731A400282A9
:1013C000028A0A430282704721B1828942F00202F6
:1013D000828104E082894FF6FD731A408281704752
:1013E00082894FF2FF731A40828182890A43828187
:1013F0007047028A4FF6DF731A400282028A0A435C
:101400000282704721B1028A42F48042028204E0E3
:10141000028A4BF6FF731A4002827047818941F0BD
:1014200001018181704721B1828A42F008028282E3
:1014300004E0828A4FF6F7731A4082827047028B6B
:10144000D2B20283028B42EA01220283704721B1A9
:10145000828A42F02002828204E0828A4FF6DF73A1
:101460001A408282704721B1828A42F01002828241
:1014700004E0828A4FF6EF731A4082827047828AB4
:101480004FF6FB731A408282828A0A438282704737
:1014900021B1828A42F00202828204E0828A4FF6FF
:1014A000FD731A40828270471AB1838A0B4383828C
:1014B00002E0838A8B4383827047F0B503460024A1
:1014C00000260025002040F66A17B94200D100BF6F
:1014D0001846C1F3421401F01F06012707FA06F56A
:1014E000012C01D10C3004E0022C01D1103000E0BD
:1014F00014301AB107682F43076002E00768AF4352
:101500000760F0BD02460020B1F5007F00D100BFAA
:1015100013880B400BB1012000E00020704701F45C
:101520000072B2F5007F00D100BFCA43028070474D
:1015300070B50246002400230025002040F66A16FC
:10154000B14200D100BFC1F3421501F01F030126D3
:1015500006FA03F3012D13D19689334017E00000FA
:10156000001001400044004000480040004C004092
:10157000005000400014014000780040007C004012
:10158000022D02D1168A334001E0968A33400C12B4
:10159000012606FA04F41688344013B10CB1012078
:1015A00000E0002070BD10B50022002340F66A1450
:1015B000A14200D100BF0A1201249440A3B2DC432F
:1015C000048010BD10B50446FE48844208D10121B4
:1015D0000846FFF728FD00210120FFF724FD9DE0CC
:1015E000B4F1804F08D101210846FFF70BFD00211F
:1015F0000120FFF707FD91E0F348844208D1012163
:101600000220FFF7FFFC00210220FFF7FBFC85E032
:10161000EE48844208D101210420FFF7F3FC0021A9
:101620000420FFF7EFFC79E0E948844208D101216A
:101630000820FFF7E7FC00210820FFF7E3FC6DE03E
:10164000E448844208D101211020FFF7DBFC00218F
:101650001020FFF7D7FC61E0DF48844208D1012168
:101660002020FFF7CFFC00212020FFF7CBFC55E026
:10167000DA48844208D101210220FFF7D4FC00217E
:101680000220FFF7D0FC49E0D548844209D101216E
:101690000804FFF7C8FC00214FF48030FFF7C3FCBB
:1016A0003CE0D048844209D101214804FFF7BBFC4B
:1016B00000214FF40030FFF7B6FC2FE0CA48844207
:1016C00009D101218804FFF7AEFC00214FF48020EE
:1016D000FFF7A9FC22E0C548844208D1012140203F
:1016E000FFF790FC00214020FFF78CFC16E0C0487B
:1016F000844208D101218020FFF784FC0021802052
:10170000FFF780FC0AE0BB48844207D10121801525
:10171000FFF778FC0021A015FFF774FC10BD002234
:101720000288A84B98420ED0AC4B98420BD0B0F137
:10173000804F08D0A44B984205D0A44B984202D0C9
:10174000A34B984204D14FF68F731A404B881A432B
:10175000A04B984207D0A04B984204D04FF6FF43CD
:101760001A400B891A4302804B68C3620B880385B9
:10177000944B984202D0994B984201D18B7A0386C0
:101780000123838270474FF0FF31416000210180C7
:1017900001814180817270470185828270470A46CB
:1017A000002101884FF68F73194011430180704763
:1017B00041627047C16270470146486A70470146FE
:1017C000088D704721B1028842F00202028004E0D5
:1017D00002884FF6FD731A400280704721B10288DB
:1017E00042F00402028004E002884FF6FB731A40C4
:1017F0000280704721B1028842F08002028004E03A
:1018000002884FF67F731A400280704702884FF6B5
:10181000F7731A40028002880A43028070470288E8
:101820004FF6FF431A40028002880A430280704745
:1018300021B1028842F00102028004E002884FF6E2
:10184000FE731A400280704770B500240022002306
:10185000058C4FF6FE7635400584028C8388048B18
:101860004FF68F752C40B51E2C400D882C43751EED
:101870002A408D892A434D882A43524DA84202D0DE
:10188000564DA84213D14FF6F7752A40CD892A4309
:101890004FF6FB752A408D882A434FF6FF652B4093
:1018A0004FF6FF552B400D8A2B434D8A2B438380E7
:1018B00004838D684563028470BD70B500240022E6
:1018C0000023058C4FF6EF7635400584028C838823
:1018D000048B48F6FF752C404FF6FF452C400D88D1
:1018E0004FF6FF7606EA05252C434FF6DF752A40B2
:1018F0008D8906EA05152A434D8806EA05152A430F
:10190000304DA84202D0354DA8421DD14FF67F750B
:101910002A40CD894FF6FF7606EA05152A434FF691
:10192000BF752A408D8806EA05152A434FF6FF3514
:101930002B404FF2FF752B400D8A06EA85052B439D
:101940004D8A06EA85052B43838004838D68856371
:10195000028470BD70B5002400220023058C4FF670
:10196000FF6635400584028C8388848B4FF68F7523
:101970002C404FF6FC752C400D882C434FF6FF553C
:101980002A408D894FF6FF7606EA05252A434D88C1
:1019900006EA05252A430B4DA84202D00F4DA84266
:1019A00038D14FF2FF752A40CD894FF6FF7606EA0F
:1019B00005252A434FF6FF352A408D8806EA05257E
:1019C0002A4319E0000001400004004000080040E4
:1019D000000C0040001000400014004000040140D2
:1019E0000040014000440140004801400018004010
:1019F000001C0040002000404EF6FF752B404DF6C5
:101A0000FF752B400D8A06EA05152B434D8A06EA21
:101A100005152B43838084838D68C563028470BD64
:101A200070B5002200230024058C4EF6FF76354069
:101A30000584038C8488828B48F6FF752A404FF614
:101A4000FF452A400D884FF6FF7606EA05252A4312
:101A50004DF6FF752B408D8906EA05352B434D88E1
:101A600006EA05352B43FE4DA84202D0FD4DA842A3
:101A700008D14BF6FF752C400D8A4FF6FF7606EA2B
:101A800085152C43848082838D680564038470BD32
:101A9000002101804180818081608181C18101823A
:101AA0004182704770B50346002000241846183064
:101AB00001258D40ACB21D8CA5431D8409B10829B8
:101AC0000AD100EB610005684FF68F76354005605E
:101AD0000568154305600FE00D1FC5F34E0528444A
:101AE000056848F6FF763540056005684FF6FF76D5
:101AF00006EA02263543056070BD41637047816385
:101B00007047C1637047016470470A460021018B2A
:101B10004FF68F7319401143018370470A46002125
:101B2000018B48F6FF7319404FF6FF7303EA022357
:101B30001943018370470A460021818B4FF68F734A
:101B400019401143818370470A460021818B48F672
:101B5000FF7319404FF6FF7303EA02231943818391
:101B600070470A460021018B4FF6F7731940114365
:101B7000018370470A460021018B4FF2FF73194021
:101B80004FF6FF7303EA02231943018370470A46A5
:101B90000021818B4FF6F773194011438183704701
:101BA0000A460021818B4FF2FF7319404FF6FF73F5
:101BB00003EA02231943818370470A460021018BFF
:101BC0004FF6FB7319401143018370470A46002109
:101BD000018B4FF6FF3319404FF6FF7303EA0223E0
:101BE0001943018370470A460021818B4FF6FB732E
:101BF00019401143818370470A460021818B4FF6BB
:101C0000FF3319404FF6FF7303EA02231943818320
:101C100070470A460021018B4FF67F73194011432C
:101C2000018370470A460021018BC1F30E014FF674
:101C3000FF7303EA02231943018370470A46002118
:101C4000818B4FF67F7319401143818370470A4699
:101C50000021818BC1F30E014FF6FF7303EA0223CB
:101C60001943818370470A460021018C4FF6FD73AA
:101C700019401143018470470A460021018C4FF638
:101C8000F77319401143018470470A460021018C03
:101C90004FF6DF7319404FF6FF7303EA021319433F
:101CA000018470470A460021018C4FF67F7319406A
:101CB0004FF6FF7303EA02131943018470470A4683
:101CC0000021018C4FF6FF5319404FF6FF7303EAD2
:101CD00002231943018470470A460021018C4FF208
:101CE000FF7319404FF6FF7303EA0223194301847F
:101CF00070470A460021018C4DF6FF7319404FF6DC
:101D0000FF7303EA023319430184704730B500239F
:101D100001248C40A3B2048C9C430484048C02FAFA
:101D200001F5ADB22C43048430BD30B5002304244A
:101D30008C40A3B2048C9C430484048C02FA01F509
:101D4000ADB22C43048430BD828B4FF2FF331A4076
:101D50008283828B4FF6FF7303EA01231A43828347
:101D60007047F0B50C461546002100220026078C6E
:101D70004EF6FF7C07EA0C070784818B028C4FF636
:101D8000FF7707EA043640F6FF4739404FF6FF7702
:101D900007EA052739434FF6FF7707EA0337394348
:101DA00045F6FF773A4046F480573A4381830284F0
:101DB000F0BD828B4FF6F3731A408283828B0A4305
:101DC00082837047F0B50C4615460021002200269C
:101DD000078C4FF6FF6C07EA0C070784818B028C97
:101DE0004FF6FF7707EA04264FF60C7739404FF697
:101DF000FF7707EA03172F4339434FF2FF573A4063
:101E000046F480773A4381830284F0BD028B4FF21F
:101E1000FF331A400283028B4FF6FF7303EA01235C
:101E20001A4302837047F0B50C4615460021002284
:101E30000026078C4FF6EF7C07EA0C070784018B1E
:101E4000028C4FF6FF7707EA041640F6FF47394049
:101E50004FF6FF7707EA033739434FF6FF7703E082
:101E6000000001400004014007EA052739434FF60E
:101E70005F773A4046F010073A4301830284F0BD91
:101E8000028B4FF6F3731A400283028B0A430283DC
:101E90007047F0B50C46154600210022068C4FF61F
:101EA000FE773E400684018B028C4FF60C76314063
:101EB0007E1C06EA03162E4331434FF6F576324078
:101EC00044F00106324301830284F0BD70B505463B
:101ED0000C46208850B92389A28861882846FFF7DC
:101EE000D8FFE1882846FFF7CBFF25E020880428AB
:101EF0000AD12389A28861882846FFF794FFE188E8
:101F00002846FFF783FF17E0208808280AD1238995
:101F1000A28861882846FFF755FFE1882846FFF729
:101F200048FF09E02389A28861882846FFF719FF46
:101F3000E1882846FFF708FF70BD0021018041803D
:101F4000012181800021C180018170472DE9F0418C
:101F500005460C4600260127608808B9022600E0E5
:101F60000026A088012801D1022700E0012720884F
:101F7000A0B92389A28861882846FFF78AFFE188F3
:101F80002846FFF77DFF23893A4631462846FFF76A
:101F90004AFFE1882846FFF739FF13E02389A2882A
:101FA00061882846FFF73FFFE1882846FFF72EFFAC
:101FB00023893A4631462846FFF76BFFE1882846D9
:101FC000FFF75EFFBDE8F0810146486B70470146B0
:101FD000886B70470146C86B70470146086C7047B4
:101FE0000A884B881A438B881A43CB881A430B897B
:101FF0001A434B891A438B891A43A0F8442070472F
:102000000021018041808180C180018141818181E5
:10201000704731B1B0F8442042F40042A0F84420A7
:1020200005E0B0F84420C2F30E02A0F84420704747
:1020300021B1828842F00402828004E082884FF657
:10204000FB731A408280704721B1828842F00102FE
:10205000828004E082884FF6FE731A4082807047C7
:102060001AB183890B43838102E083898B43838187
:1020700070478182704702460020138A0B400BB1E3
:10208000012000E000207047CA430282704730B54B
:102090000246002000230024158A05EA01039589E1
:1020A00005EA010413B10CB1012000E0002030BDAD
:1020B000CA430282704741EA0203A0F848307047E1
:1020C0001AB183890B43838102E083898B43838127
:1020D000704721B1828842F00802828004E0828841
:1020E0004FF6F7731A408280704701894FF6F872F5
:1020F0001140018170470A46002101894FF68F7314
:10210000194011430181704730B504460D462946F8
:102110002046FFF7F0FF208940F00700208130BD06
:102120002DE9F04104460D4616461F46602D06D1A6
:102130003B46012231462046FFF775FE05E03B464F
:10214000012231462046FFF7A4FE29462046FFF72C
:10215000D2FF208940F007002081BDE8F08130B532
:102160000C4600210189C9B24FF6FF7505EA032527
:10217000154325432943018130BD2DE9F041054632
:102180000E4617469846002443463A4631462846AE
:10219000FFF7E5FF2C894FF6F870044044F0070480
:1021A0004FF68F70044044F070042C81BDE8F0813C
:1021B000F0B504460D4616461F463B4632462946B4
:1021C0002046FFF7CCFF208940F480402081F0BDFD
:1021D00082884FF68F731A40828082880A438280F9
:1021E000704702894FF6F8731A40028102890A4348
:1021F0000281704702894FF67F731A40028102897B
:102200000A4302817047F0B50C4615461E46002170
:10221000002200230189028B038C4FF6F8773940A6
:1022200021434FF6FC473A4040F201173A434FF63C
:10223000DD773B404FF6FF7707EA06172F433B4316
:10224000018102830384F0BD21B1828842F08002C3
:10225000828004E082884FF67F731A408280704744
:10226000A0F850107047000010B504466FF004004D
:10227000FEF7E8FAE11704EB5171C1F3C701394ADF
:1022800011701046007800EB4001C1EBC0104FF612
:10229000FF7101EAC0003449088010BD0146314A8F
:1022A00012784A434FF0E0235A6100229A611A469D
:1022B000126942F001021A6100BF4FF0E02210697A
:1022C00000F001021AB100F48032002AF5D04FF07C
:1022D000E022126922F001024FF0E0231A6100228D
:1022E0009A6170470146204A12884A434FF0E02322
:1022F0005A6100229A611A46126942F001021A617B
:1023000000BF4FF0E022106900F001021AB100F4A2
:102310008032002AF5D04FF0E022126922F001024B
:102320004FF0E0231A6100229A61704770B50446AD
:102330004FF4077094FBF0F0C6B24FF4077094FBB3
:10234000F0F100FB114085B205E04FF40770FFF794
:10235000C9FF701EC6B2002EF7D115B12846FFF78F
:10236000C1FF70BD2400002026000020014600BFF0
:10237000704700BF2E4A128802F04002002AF9D0AE
:10238000C2B22B4B9A80704710B588B00446012129
:102390000846FEF799FD01211020FEF7EFFD072208
:1023A00009212448FEF77DFB07220A212148FEF778
:1023B00078FB4FF4C060069002208DF81C008DF869
:1023C0001D0000208DF81E0001208DF81F0006A9B9
:1023D0001848FEF7DBFA02940020ADF80C00ADF8C7
:1023E0000E00ADF81000ADF814000C20ADF812008E
:1023F00002A90F48FEF723FF01210D48FEF7A7FFB2
:10240000012240F225510A48FFF757F825208DF8A0
:10241000040003208DF805008DF8060001208DF8DA
:10242000070001A8FEF7C1F908B010BD00207047F1
:10243000001001400000024030B58BB004460D464C
:1024400001210F20FEF789FD01210F20FEF73CFD41
:1024500001220F21DB48FEF724FB01220321DA4889
:10246000FEF71FFB01220A21D748FEF71AFB0122C3
:102470000B21D548FEF715FB02220621D348FEF7B3
:1024800010FB02220721D148FEF70BFB022200219C
:10249000CD48FEF706FB02220121CB48FEF701FBE7
:1024A00002220C21CA48FEF7FCFA02220D21C8487C
:1024B000FEF7F7FA02220E21C548FEF7F2FA0222D1
:1024C0000F21C348FEF7EDFA02220021BD48FEF7B6
:1024D000E8FA02220121BB48FEF7E3FA0222114684
:1024E000B848FEF7DEFA02220321B648FEF7D9FA11
:1024F00048F20F00099002208DF8280003208DF883
:10250000290000208DF82A008DF82B0009A9AD487C
:10251000FEF73CFA40F60B40099009A9AA48FEF7DD
:1025200035FAC020099009A9A848FEF72FFA4FF400
:102530007040099009A9A648FEF728FAA8B2ADF89C
:1025400018000020ADF81A000794ADF8200006A985
:102550004FF08040FFF7E3F806A99E48FFF7DFF849
:1025600006A99D48FFF7DBF806A99C48FFF7D7F8B6
:102570006020ADF804000120ADF806000020ADF8A1
:10258000100001A94FF08040FFF75EF901A99148C2
:10259000FFF75AF901A99048FFF756F901A98F48AA
:1025A000FFF752F90821C806FFF7DBFA082189482E
:1025B000FFF7D7FA08218848FFF7D3FA08218748A0
:1025C000FFF7CFFA01A94FF08040FFF776F901A994
:1025D0008048FFF772F901A97F48FFF76EF901A95A
:1025E0007E48FFF76AF90821C806FFF7C3FA0821F9
:1025F0007848FFF7BFFA08217748FFF7BBFA0821B0
:102600007648FFF7B7FA01A94FF08040FFF7A2F92B
:1026100001A97048FFF79EF901A96F48FFF79AF9E1
:1026200001A96E48FFF796F90821C806FFF7AFFA2F
:1026300008216848FFF7ABFA08216748FFF7A7FAB7
:1026400008216648FFF7A3FA01A94FF08040FFF781
:10265000E7F901A95F48FFF7E3F901A95E48FFF731
:10266000DFF901A95D48FFF7DBF90821C806FFF78C
:1026700097FA08215748FFF793FA08215648FFF7C1
:102680008FFA08215548FFF78BFA01218807FFF7D9
:10269000B1F801214F48FFF7ADF801214E48FFF78F
:1026A000A9F801214D48FFF7A5F80BB030BD10B5D2
:1026B00001218807FFF7BCF801214648FFF7B8F869
:1026C00001214548FFF7B4F801214448FFF7B0F86D
:1026D00010BD70B505460C46002605EB850000F2DE
:1026E000EE26012C04D13146A007FFF706FA68E078
:1026F000032C05D131464FF08040FFF700FA60E02F
:102700002CB931464FF08040FFF7FBF959E0022C1D
:1027100004D131466007FFF7F6F952E0052C04D1E9
:1027200031462C48FFF7E9F94BE0072C04D131463C
:102730002848FFF7E4F944E0042C04D13146254849
:10274000FFF7DFF93DE0062C04D131462148FFF7C1
:10275000DAF936E0092C04D131461F48FFF7CDF9EC
:102760002FE00B2C04D131461B48FFF7C8F928E0B5
:10277000082C04D131461848FFF7C3F921E00A2C90
:1027800004D131461448FFF7BEF91AE00C2C04D1ED
:1027900031461248FFF7B1F913E00D2C04D1314650
:1027A0000E48FFF7ACF90CE00E2C04D131460B4873
:1027B000FFF7A7F905E00F2C03D131460748FFF7D3
:1027C000A2F970BD0000024000040240000802406F
:1027D000000C02400004004000080040000C0040D3
:1027E0001CB500200190FEF795F90120FEF7BBF91A
:1027F000FEF7DEF901900198012822D10020FEF7B2
:102800002AFA0220FEF760FA0020FEF76DFA4FF474
:10281000A050FEF773FA4FF48050FEF779FA0720C4
:1028200002234FF4A872192100905805FEF703FA0D
:102830000120FEF710FA00BF3920FEF79BF90028AF
:10284000FAD01CBD10B5574991ED090ABDEEC00A7A
:1028500010EE100A0921FFF73CFF524991ED010AE1
:10286000BDEEC00A10EE100A0121FFF732FF4D49FC
:1028700091ED050ABDEEC00A10EE100A0521FFF722
:1028800028FF4849703991ED1C0ABDEEC00A10EED0
:10289000100A0021FFF71DFF424991ED040ABDEE29
:1028A000C00A10EE100A0421FFF713FF3D4991ED15
:1028B000080ABDEEC00A10EE100A0821FFF709FF52
:1028C000384991ED020ABDEEC00A10EE100A02214D
:1028D000FFF7FFFE334991ED060ABDEEC00A10EE88
:1028E000100A0621FFF7F5FE2E4991ED0A0ABDEE0A
:1028F000C00A10EE100A0A21FFF7EBFE294991EDFC
:10290000030ABDEEC00A10EE100A0321FFF7E1FE34
:10291000244991ED070ABDEEC00A10EE100A072106
:10292000FFF7D7FE1F4991ED0B0ABDEEC00A10EE6E
:10293000100A0B21FFF7CDFE10BD9FED1B0A1948B1
:10294000703880ED1C0A9FED190A703080ED010A85
:102950009FED170A80ED020A9FED160A80ED030A2B
:102960009FED150A80ED040ABAEE0E0A80ED050A05
:102970009FED110A80ED060A9FED0F0A80ED070A10
:102980009FED0D0A80ED080ABAEE040A80ED090AEF
:102990009FED090A80ED0A0A9FED070A80ED0B0AF8
:1029A0007047000098B000200000344200005CC274
:1029B00000000C42000000C200000000704710B58B
:1029C000203AC0F00B80B1E81850203AA0E8185027
:1029D000B1E81850A0E81850BFF4F5AF5FEA027CE8
:1029E00024BFB1E81850A0E8185044BF18C918C057
:1029F000BDE810405FEA827C24BF51F8043B40F8F8
:102A0000043B08BF7047D20728BF31F8023B48BFDC
:102A100011F8012B28BF20F8023B48BF00F8012B1A
:102A200070477047704770477047754600F02CF844
:102A3000AE4605006946534620F00700854618B0AB
:102A400020B5FDF79BFEBDE820404FF000064FF09B
:102A500000074FF000084FF0000B21F00701AC46D3
:102A6000ACE8C009ACE8C009ACE8C009ACE8C009F2
:102A70008D46704710B50446AFF300802046BDE890
:102A80001040FDF7CABB000000487047CCB00020E2
:102A90004FF04070E1EE100A7047000000000000A7
:102AA00052B89E3EF6281C3F6666663F3D0A973F39
:102AB000EC51B83FEC51D83F3D0AF73F713D0A4019
:102AC00014AE1740E17A2440D7A33040F6283C40AA
:102AD0003D0A4740AE475140713D5A403333634051
:102AE00048E16A405C8F7240C3F57840295C7F40C2
:102AF000713D8240E17A844052B88640EC51884072
:102B000085EB894048E18A400AD78B40E17A8C40C6
:102B1000CDCC8C40CDCC8C40E17A8C400AD78B4018
:102B200048E18A4085EB8940D7A388403D0A874029
:102B3000B81E854033338340D7A38040F6287C40BD
:102B40003D0A7740D7A37040713D6A4033336340FC
:102B5000F6285C40E17A5440F6284C403333434039
:102B6000713D3A40D7A330403D0A2740CDCC1C40B0
:102B70005C8F124014AE0740EC51F83FAE47E13F86
:102B8000C3F5C83FD7A3B03F3D0A973F48E17A3F1E
:102B9000B81E453F295C0F3F7B14AE3E8FC2F53D0A
:102BA000AE47E1BD7B14AEBE85EB11BF295C4FBFC4
:102BB000666686BF6666A6BF6666C6BF14AEE7BF1A
:102BC000E17A04C0B81E15C0666626C014AE37C0D0
:102BD000C3F548C048E15AC0CDCC6CC052B87EC0E5
:102BE000D7A388C085EB91C033339BC0CDCCA4C0A4
:102BF0006666AEC00000B8C085EBC1C00AD7CBC0C6
:102C00008FC2D5C014AEDFC085EBE9C00AD7F3C0D0
:102C10006666FEC0EC5104C1A47009C152B80EC171
:102C2000000014C1A47019C152B81EC1F62824C1F5
:102C30009A9929C13D0A2FC1E17A34C17B143AC166
:102C40001F853FC1B81E45C148E14AC1E17A50C164
:102C50007B1456C10AD75BC19A9961C1295C67C1CF
:102C6000B81E6DC13D0A73C1CDCC78C152B87EC1CA
:102C7000EC5182C1AE4785C1713D88C1AE478BC161
:102C8000713D8EC1AE4791C1EC5194C1295C97C191
:102C900066669AC11F859DC15C8FA0C114AEA3C199
:102CA000CDCCA6C185EBA9C13D0AADC1F628B0C106
:102CB000295CB3C15C8FB6C114AEB9C148E1BCC1D7
:102CC000F628C0C1295CC3C1D7A3C6C10AD7C9C1F0
:102CD000B81ECDC16666D0C18FC2D3C13D0AD7C16F
:102CE0006666DAC18FC2DDC1B81EE1C1E17AE4C116
:102CF00085EBE7C185EBE7C148E1E0C1AE47DFC145
:102D00003D0AE3C1713DECC1C3F5FAC148E107C218
:102D10001F8515C2C3F526C2B81E3DC2B81E3DC2EE
:102D2000B81E3DC2B81E3DC2B81E3DC2B81E3DC24F
:102D3000B81E3DC2B81E3DC2B81E3DC2B81E3DC23F
:102D4000B81E3DC2B81E3DC2B81E3DC2B81E3DC22F
:102D5000B81E3DC2B81E3DC2B81E3DC2B81E3DC21F
:102FA00000003CC285EB3AC20AD739C28FC238C290
:102FB00052B837C2D7A336C29A9935C25C8F34C291
:102FC0001F8533C2E17A32C2A47031C2A47030C20C
:102FD000A4702FC266662EC266662DC266662CC2BB
:102FE000A4702BC2A4702AC2A47029C2E17A28C29C
:102FF0001F8527C25C8F26C29A9925C2D7A324C2F7
:1030000014AE23C28FC222C2CDCC21C248E120C25D
:10301000C3F51FC200001FC27B141EC233331DC282
:10302000AE471CC2295C1BC2E17A1AC25C8F19C26E
:1030300014AE18C2CDCC17C248E116C2000016C2A9
:10304000F62815C2AE4714C2666613C21F8512C2A7
:1030500014AE11C20AD710C2C3F50FC2B81E0FC2F8
:10306000AE470EC2A4700DC29A990CC28FC20BC299
:1030700085EB0AC2B81E0AC2AE4709C2A47008C2D4
:10308000D7A307C20AD706C23D0A06C2333305C218
:10309000666604C29A9903C2CDCC02C23D0A02C23E
:1030A000713D01C2A47000C2AE47FFC18FC2FDC115
:1030B000F628FCC1D7A3FAC1B81EF9C19A99F7C185
:1030C0000000F6C1E17AF4C1C3F5F2C1A470F1C108
:1030D0000000F0C1E17AEEC1C3F5ECC1A470EBC110
:1030E0000000EAC1E17AE8C13D0AE7C19A99E5C169
:1030F0007B14E4C1D7A3E2C13333E1C18FC2DFC186
:10310000EC51DEC148E1DCC1A470DBC10000DAC1D2
:103110005C8FD8C1B81ED7C18FC2D5C1EC51D4C104
:1031200048E1D2C11F85D1C1F628D0C152B8CEC165
:10313000295CCDC10000CCC15C8FCAC13333C9C189
:103140000AD7C7C1E17AC6C1B81EC5C18FC2C3C103
:103150006666C2C1B81EC1C18FC2BFC16666BEC1AC
:10316000B81EBDC18FC2BBC16666BAC1B81EB9C1A7
:103170000AD7B7C1E17AB6C13333B5C185EBB3C164
:103180005C8FB2C1AE47B1C10000B0C152B8AEC190
:10319000A470ADC1F628ACC148E1AAC19A99A9C1F1
:1031A0006666A8C1B81EA7C10AD7A5C15C8FA4C115
:1031B000295CA3C17B14A2C148E1A0C19A999FC117
:1031C00066669EC1B81E9DC185EB9BC152B89AC16F
:1031D0001F8599C1713D98C13D0A97C10AD795C114
:1031E000D7A394C1A47093C1713D92C13D0A91C10E
:1031F0000AD78FC10AD78FC10AD78FC10AD78FC10B
:103200000AD78FC10AD78FC10AD78FC10AD78FC1FA
:103210000AD78FC10AD78FC10AD78FC10AD78FC1EA
:103220000AD78FC10AD78FC10AD78FC10AD78FC1DA
:1036F0000AD78FC10AD78FC152B88EC11F858DC11D
:10370000EC518CC1B81E8BC100008AC1CDCC88C1E0
:103710009A9987C1E17A86C1AE4785C1F62884C1EE
:103720003D0A83C10AD781C152B880C133337FC1FA
:10373000CDCC7CC15C8F7AC1EC5178C17B1476C151
:103740000AD773C19A9971C1295C6FC1B81E6DC146
:1037500048E16AC1D7A368C1666666C1EC5164C11D
:103760007B1462C10AD75FC18FC25DC11F855BC177
:10377000AE4759C1333357C1C3F554C148E152C1B3
:10378000D7A350C15C8F4EC1E17A4CC1713D4AC193
:10379000F62848C17B1446C1000044C18FC241C114
:1037A00014AE3FC19A993DC11F853BC1A47039C178
:1037B000295C37C1AE4735C1333333C1B81E31C17F
:1037C00033332FC1B81E2DC13D0A2BC1C3F528C10B
:1037D0003D0A27C1C3F524C148E122C1C3F520C178
:1037E00048E11EC1C3F51CC148E11AC1C3F518C1A7
:1037F00048E116C1C3F514C13D0A13C1C3F510C198
:103800003D0A0FC1B81E0DC133330BC1B81E09C12B
:10381000333307C1AE4705C1295C03C1A47001C1A0
:103820003D0AFFC03333FBC0295CF7C01F85F3C0DE
:103830000000F0C0F628ECC0EC51E8C0E17AE4C02A
:10384000D7A3E0C0B81EDDC0AE47D9C08FC2D5C077
:1038500085EBD1C07B14CEC05C8FCAC052B8C6C045
:103860003333C3C0295CBFC00AD7BBC0EC51B8C05A
:10387000E17AB4C0C3F5B0C0A470ADC085EBA9C0F7
:103880007B14A6C05C8FA2C03D0A9FC01F859BC051
:10389000000098C0E17A94C0C3F590C0A4708DC0B8
:1038A00085EB89C0666686C048E182C052B87EC09A
:1038B000EC5178C0AE4771C0713D6AC0333363C00C
:1038C000CDCC5CC08FC255C052B84EC0EC5148C080
:1038D000AE4741C048E13AC00AD733C0A4702DC0FA
:1038E000666626C0000020C09A9919C05C8F12C07D
:1038F000F6280CC08FC205C0A470FDBFD7A3F0BFCF
:103900000AD7E3BF3D0AD7BF713DCABFA470BDBF90
:10391000D7A3B0BF0AD7A3BF3D0A97BF713D8ABFE7
:1039200048E17ABFAE4761BF14AE47BF7B142EBFDC
:10393000E17A14BF8FC2F5BE14AEC7BEE17A94BE61
:103940005C8F42BECDCCCCBD00000000000000006A
:103950000000000000000000000000000000000067
:103960000000000000000000000000000000000057
:103970000000000000000000000000000000000047
:103980000000000000000000000000000000000037
:103E5000CDCCCC3D5C8F423EE17A943E5C8FC23E3D
:103E60008FC2F53E85EB113F1F852B3F5C8F423F94
:103E70009A99593F3333733FB81E853FD7A3903F7C
:103E8000F6289C3FC3F5A83FE17AB43F0000C03F4D
:103E90001F85CB3F3D0AD73F5C8FE23F7B14EE3F4F
:103EA0009A99F93F5C8F0240EC5108407B140E4018
:103EB0000AD713409A991940295C1F40B81E254023
:103EC000713D2A40000030408FC2354048E13A4001
:103ED000D7A34040666646401F854B40AE475140E1
:103EE00066665640F6285C40AE4761403D0A674032
:103EF000F6286C4085EB71403D0A7740F6287C40FF
:103F0000C3F580401F8583407B148640D7A388403B
:103F100033338B407B148E40D7A390403333934090
:103F20008FC29540EC51984048E19A40A4709D4062
:103F30000000A0405C8FA240B81EA540295CA740AD
:103F400085EBA940E17AAC403D0AAF40AE47B140B5
:103F50000AD7B3406666B640D7A3B8403333BB40F8
:103F60008FC2BD400000C0405C8FC240CDCCC44079
:103F7000295CC7409A99C940F628CC406666CE4075
:103F8000D7A3D0403333D340A470D54014AED7402C
:103F900085EBD940E17ADC4052B8DE40C3F5E04021
:103FA0003333E340A470E54014AEE74085EBE940CD
:103FB000F628EC406666EE40D7A3F04048E1F240B8
:103FC000B81EF540295CF7409A99F9401F85FB40DF
:103FD0008FC2FD4000000041B81E01417B14024128
:103FE00033330341EC510441AE4705416666064157
:103FF000295C0741E17A0841A47009415C8F0A41BC
:104000001F850B41E17A0C419A990D415C8F0E415D
:104010001F850F41D7A310419A9911415C8F12411E
:104020001F851341E17A1441A47015415C8F16413C
:104030001F851741E17A1841A470194166661A413B
:10404000295C1B41F6281C41B81E1D417B141E41F2
:104050003D0A1F4100002041C3F520418FC221418C
:1040600052B8224114AE2341E17A2441A470254183
:10407000713D26413333274100002841C3F52841D3
:104080008FC2294152B82A411F852B41E17A2C4128
:10409000AE472D417B142E413D0A2F410AD72F41B7
:1040A000D7A33041D7A33041D7A33041D7A3304164
:1040B000D7A33041D7A33041D7A33041D7A3304154
:1040C000D7A33041D7A33041D7A33041D7A3304144
:1040D000D7A33041D7A33041D7A33041D7A3304134
:10432000D7A33041D7A33041333337419A993D4128
:104330000AD743418FC249411F854F41B81E55419D
:104340005C8F5A410AD75F41CDCC64419A9969414B
:10435000713D6E4152B872413D0A774133337B4122
:104360003D0A7F41A47081413333834148E1844158
:104370005C8F86417B1488411F85894148E18A41D1
:10438000F6288C41295C8D415C8F8E419A998F4132
:104390005C8F9041A4709141EC5192413D0A934150
:1043A0008FC293416666944148E19441295C9541EE
:1043B0008FC29541F628964166669641D7A39641ED
:1043C000CDCC964148E1964148E1964148E196417D
:1043D000CDCC9641D7A3964166669641F628964184
:1043E0000AD79541A47095413D0A95415C8F94414F
:1043F00000009441A4709341CDCC92417B14924132
:10440000295C9141D7A390410AD78F41C3F58E41D2
:104410007B148E41B81E8D41F6288C41B81E8B410D
:1044200000008A41C3F588418FC28741D7A38641E6
:10443000A4708541F628844148E182419A998141DE
:10444000713D80418FC27D4148E17A410000784151
:10445000B81E75417B1472413D0A6F4100006C41EA
:10446000CDCC68419A9965416666624133335F41BC
:104470000AD75B41E17A5841C3F554419A995141B9
:104480007B144E415C8F4A4148E14641295C4341DF
:1044900014AE3F4100003C41EC513841E17A3441D7
:1044A000D7A33041C3F52C41B81E2941B81E254180
:1044B000AE472141AE471D41A4701941A47015417A
:1044C000A4701141A4700D41AE470941AE470541AA
:1044D000AE470141713DFA4085EBF1409A99E940C0
:1044E000AE47E140C3F5D840D7A3D040EC51C84017
:1044F00014AEBF40295CB74052B8AE407B14A64012
:104500008FC29D40B81E9540E17A8C400AD7834007
:1045100066667640B81E65400AD7534085EB414039
:10452000D7A33040295C1F40A4700D40EC51F83FE8
:104530008FC2D53F85EBB13F7B148E3F3D0A573F7D
:10454000295C0F3F295C8F3E0AD7233C713D8ABE10
:10455000CDCC0CBFE17A54BF7B148EBF85EBB1BFCD
:104560008FC2D5BF9A99F9BF52B80EC0D7A320C049
:10457000333333C0B81E45C03D0A57C03D0A57C04B
:104580008FC225C048E11AC0B81E35C0B81E75C01C
:104590008FC2ADC0F628F4C048E126C185EB5DC1ED
:1045A0000AD78FC10AD78FC152B88EC11F858DC15E
:1045B000EC518CC1B81E8BC100008AC1CDCC88C122
:1045C0009A9987C1E17A86C1AE4785C1F62884C130
:1045D0003D0A83C10AD781C152B880C133337FC13C
:1045E000CDCC7CC15C8F7AC1EC5178C17B1476C193
:1045F0000AD773C19A9971C1295C6FC1B81E6DC188
:1046000048E16AC1D7A368C1666666C1EC5164C15E
:104610007B1462C10AD75FC18FC25DC11F855BC1B8
:10462000AE4759C1333357C1C3F554C148E152C1F4
:10463000D7A350C15C8F4EC1E17A4CC1713D4AC1D4
:10464000F62848C17B1446C1000044C18FC241C155
:1046500014AE3FC19A993DC11F853BC1A47039C1B9
:10466000295C37C1AE4735C1333333C1B81E31C1C0
:1046700033332FC1B81E2DC13D0A2BC1C3F528C14C
:104680003D0A27C1C3F524C148E122C1C3F520C1B9
:1046900048E11EC1C3F51CC148E11AC1C3F518C1E8
:1046A00048E116C1C3F514C13D0A13C1C3F510C1D9
:1046B0003D0A0FC1B81E0DC133330BC1B81E09C16D
:1046C000333307C1AE4705C1295C03C1A47001C1E2
:1046D0003D0AFFC03333FBC0295CF7C01F85F3C020
:1046E0000000F0C0F628ECC0EC51E8C0E17AE4C06C
:1046F000D7A3E0C0B81EDDC0AE47D9C08FC2D5C0B9
:1047000085EBD1C07B14CEC05C8FCAC052B8C6C086
:104710003333C3C0295CBFC00AD7BBC0EC51B8C09B
:10472000E17AB4C0C3F5B0C0A470ADC085EBA9C038
:104730007B14A6C05C8FA2C03D0A9FC01F859BC092
:10474000000098C0E17A94C0C3F590C0A4708DC0F9
:1047500085EB89C0666686C048E182C052B87EC0DB
:10476000EC5178C0AE4771C0713D6AC0333363C04D
:10477000CDCC5CC08FC255C052B84EC0EC5148C0C1
:10478000AE4741C048E13AC00AD733C0A4702DC03B
:10479000666626C0000020C09A9919C05C8F12C0BE
:1047A000F6280CC08FC205C0A470FDBFD7A3F0BF10
:1047B0000AD7E3BF3D0AD7BF713DCABFA470BDBFD2
:1047C000D7A3B0BF0AD7A3BF3D0A97BF713D8ABF29
:1047D00048E17ABFAE4761BF14AE47BF7B142EBF1E
:1047E000E17A14BF8FC2F5BE14AEC7BEE17A94BEA3
:1047F0005C8F42BECDCCCCBD0000000000000000AC
:1048000000000000000000000000000000000000A8
:104810000000000000000000000000000000000098
:104820000000000000000000000000000000000088
:104830000000000000000000000000000000000078
:104D0000CDCCCC3D5C8F423EE17A943E5C8FC23E7E
:104D10008FC2F53E85EB113F1F852B3F5C8F423FD5
:104D20009A99593F3333733FB81E853FD7A3903FBD
:104D3000F6289C3FC3F5A83FE17AB43F0000C03F8E
:104D40001F85CB3F3D0AD73F5C8FE23F7B14EE3F90
:104D50009A99F93F5C8F0240EC5108407B140E4059
:104D60000AD713409A991940295C1F40B81E254064
:104D7000713D2A40000030408FC2354048E13A4042
:104D8000D7A34040666646401F854B40AE47514022
:104D900066665640F6285C40AE4761403D0A674073
:104DA000F6286C4085EB71403D0A7740F6287C4040
:104DB000C3F580401F8583407B148640D7A388407D
:104DC00033338B407B148E40D7A3904033339340D2
:104DD0008FC29540EC51984048E19A40A4709D40A4
:104DE0000000A0405C8FA240B81EA540295CA740EF
:104DF00085EBA940E17AAC403D0AAF40AE47B140F7
:104E00000AD7B3406666B640D7A3B8403333BB4039
:104E10008FC2BD400000C0405C8FC240CDCCC440BA
:104E2000295CC7409A99C940F628CC406666CE40B6
:104E3000D7A3D0403333D340A470D54014AED7406D
:104E400085EBD940E17ADC4052B8DE40C3F5E04062
:104E50003333E340A470E54014AEE74085EBE9400E
:104E6000F628EC406666EE40D7A3F04048E1F240F9
:104E7000B81EF540295CF7409A99F9401F85FB4020
:104E80008FC2FD4000000041B81E01417B14024169
:104E900033330341EC510441AE4705416666064198
:104EA000295C0741E17A0841A47009415C8F0A41FD
:104EB0001F850B41E17A0C419A990D415C8F0E419F
:104EC0001F850F41D7A310419A9911415C8F124160
:104ED0001F851341E17A1441A47015415C8F16417E
:104EE0001F851741E17A1841A470194166661A417D
:104EF000295C1B41F6281C41B81E1D417B141E4134
:104F00003D0A1F4100002041C3F520418FC22141CD
:104F100052B8224114AE2341E17A2441A4702541C4
:104F2000713D26413333274100002841C3F5284114
:104F30008FC2294152B82A411F852B41E17A2C4169
:104F4000AE472D417B142E413D0A2F410AD72F41F8
:104F5000D7A33041D7A33041333337419A993D41EC
:104F60000AD743418FC249411F854F41B81E554161
:104F70005C8F5A410AD75F41CDCC64419A9969410F
:104F8000713D6E4152B872413D0A774133337B41E6
:104F90003D0A7F41A47081413333834148E184411C
:104FA0005C8F86417B1488411F85894148E18A4195
:104FB000F6288C41295C8D415C8F8E419A998F41F6
:104FC0005C8F9041A4709141EC5192413D0A934114
:104FD0008FC293416666944148E19441295C9541B2
:104FE0008FC29541F628964166669641D7A39641B1
:104FF000CDCC964148E1964148E1964148E1964141
:10500000CDCC9641D7A3964166669641F628964147
:105010000AD79541A47095413D0A95415C8F944112
:1050200000009441A4709341CDCC92417B149241F5
:10503000295C9141D7A390410AD78F41C3F58E4196
:105040007B148E41B81E8D41F6288C41B81E8B41D1
:1050500000008A41C3F588418FC28741D7A38641AA
:10506000A4708541F628844148E182419A998141A2
:10507000713D80418FC27D4148E17A410000784115
:10508000B81E75417B1472413D0A6F4100006C41AE
:10509000CDCC68419A9965416666624133335F4180
:1050A0000AD75B41E17A5841C3F554419A9951417D
:1050B0007B144E415C8F4A4148E14641295C4341A3
:1050C00014AE3F4100003C41EC513841E17A34419B
:1050D000D7A33041C3F52C41B81E2941B81E254144
:1050E000AE472141AE471D41A4701941A47015413E
:1050F000A4701141A4700D41AE470941AE4705416E
:10510000AE470141713DFA4085EBF1409A99E94083
:10511000AE47E140C3F5D840D7A3D040EC51C840DA
:1051200014AEBF40295CB74052B8AE407B14A640D5
:105130008FC29D40B81E9540E17A8C400AD78340CB
:1051400066667640B81E65400AD7534085EB4140FD
:10515000D7A33040295C1F40A4700D40EC51F83FAC
:105160008FC2D53F85EBB13F7B148E3F3D0A573F41
:10517000295C0F3F295C8F3E0AD7233C713D8ABED4
:10518000CDCC0CBFE17A54BF7B148EBF85EBB1BF91
:105190008FC2D5BF9A99F9BF52B80EC0D7A320C00D
:1051A000333333C0B81E45C03D0A57C03D0A57C00F
:1051B0008FC225C048E11AC0B81E35C0B81E75C0E0
:1051C0008FC2ADC0F628F4C048E126C185EB5DC1B1
:1051D0000AD78FC10AD78FC10AD78FC10AD78FC10B
:1051E0000AD78FC10AD78FC10AD78FC10AD78FC1FB
:1051F0000AD78FC10AD78FC10AD78FC10AD78FC1EB
:105200000AD78FC10AD78FC10AD78FC10AD78FC1DA
:105450000AD78FC10AD78FC152B88EC11F858DC19F
:10546000EC518CC1B81E8BC100008AC1CDCC88C163
:105470009A9987C1E17A86C1AE4785C1F62884C171
:105480003D0A83C10AD781C152B880C133337FC17D
:10549000CDCC7CC15C8F7AC1EC5178C17B1476C1D4
:1054A0000AD773C19A9971C1295C6FC1B81E6DC1C9
:1054B00048E16AC1D7A368C1666666C1EC5164C1A0
:1054C0007B1462C10AD75FC18FC25DC11F855BC1FA
:1054D000AE4759C1333357C1C3F554C148E152C136
:1054E000D7A350C15C8F4EC1E17A4CC1713D4AC116
:1054F000F62848C17B1446C1000044C18FC241C197
:1055000014AE3FC19A993DC11F853BC1A47039C1FA
:10551000295C37C1AE4735C1333333C1B81E31C101
:1055200033332FC1B81E2DC13D0A2BC1C3F528C18D
:105530003D0A27C1C3F524C148E122C1C3F520C1FA
:1055400048E11EC1C3F51CC148E11AC1C3F518C129
:1055500048E116C1C3F514C13D0A13C1C3F510C11A
:105560003D0A0FC1B81E0DC133330BC1B81E09C1AE
:10557000333307C1AE4705C1295C03C1A47001C123
:105580003D0AFFC03333FBC0295CF7C01F85F3C061
:105590000000F0C0F628ECC0EC51E8C0E17AE4C0AD
:1055A000D7A3E0C0B81EDDC0AE47D9C08FC2D5C0FA
:1055B00085EBD1C07B14CEC05C8FCAC052B8C6C0C8
:1055C0003333C3C0295CBFC00AD7BBC0EC51B8C0DD
:1055D000E17AB4C0C3F5B0C0A470ADC085EBA9C07A
:1055E0007B14A6C05C8FA2C03D0A9FC01F859BC0D4
:1055F000000098C0E17A94C0C3F590C0A4708DC03B
:1056000085EB89C0666686C048E182C052B87EC01C
:10561000EC5178C0AE4771C0713D6AC0333363C08E
:10562000CDCC5CC08FC255C052B84EC0EC5148C002
:10563000AE4741C048E13AC00AD733C0A4702DC07C
:10564000666626C0000020C09A9919C05C8F12C0FF
:10565000F6280CC08FC205C0A470FDBFD7A3F0BF51
:105660000AD7E3BF3D0AD7BF713DCABFA470BDBF13
:10567000D7A3B0BF0AD7A3BF3D0A97BF713D8ABF6A
:1056800048E17ABFAE4761BF14AE47BF7B142EBF5F
:10569000E17A14BF8FC2F5BE14AEC7BEE17A94BEE4
:1056A0005C8F42BECDCCCCBD0000000000000000ED
:1056B00000000000000000000000000000000000EA
:1056C00000000000000000000000000000000000DA
:1056D00000000000000000000000000000000000CA
:1056E00000000000000000000000000000000000BA
:1059300052B89E3EF6281C3F6666663F3D0A973F7A
:10594000EC51B83FEC51D83F3D0AF73F713D0A405A
:1059500014AE1740E17A2440D7A33040F6283C40EB
:105960003D0A4740AE475140713D5A403333634092
:1059700048E16A405C8F7240C3F57840295C7F4003
:10598000713D8240E17A844052B88640EC518840B3
:1059900085EB894048E18A400AD78B40E17A8C4008
:1059A000CDCC8C40CDCC8C40E17A8C400AD78B405A
:1059B00048E18A4085EB8940D7A388403D0A87406B
:1059C000B81E854033338340D7A38040F6287C40FF
:1059D0003D0A7740D7A37040713D6A40333363403E
:1059E000F6285C40E17A5440F6284C40333343407B
:1059F000713D3A40D7A330403D0A2740CDCC1C40F2
:105A00005C8F124014AE0740EC51F83FAE47E13FC7
:105A1000C3F5C83FD7A3B03F3D0A973F48E17A3F5F
:105A2000B81E453F295C0F3F7B14AE3E8FC2F53D4B
:105A3000AE47E1BD7B14AEBE85EB11BF295C4FBF05
:105A4000666686BF6666A6BF6666C6BF14AEE7BF5B
:105A5000E17A04C0B81E15C0666626C014AE37C011
:105A6000C3F548C048E15AC0CDCC6CC052B87EC026
:105A7000D7A388C085EB91C033339BC0CDCCA4C0E5
:105A80006666AEC00000B8C085EBC1C00AD7CBC007
:105A90008FC2D5C014AEDFC085EBE9C00AD7F3C012
:105AA0006666FEC0EC5104C1A47009C152B80EC1B3
:105AB000000014C1A47019C152B81EC1F62824C137
:105AC0009A9929C13D0A2FC1E17A34C17B143AC1A8
:105AD0001F853FC1B81E45C148E14AC1E17A50C1A6
:105AE0007B1456C10AD75BC19A9961C1295C67C111
:105AF000B81E6DC13D0A73C1CDCC78C152B87EC10C
:105B0000EC5182C1AE4785C1713D88C1AE478BC1A2
:105B1000713D8EC1AE4791C1EC5194C1295C97C1D2
:105B200066669AC11F859DC15C8FA0C114AEA3C1DA
:105B3000CDCCA6C185EBA9C13D0AADC1F628B0C147
:105B4000295CB3C15C8FB6C114AEB9C148E1BCC118
:105B5000F628C0C1295CC3C1D7A3C6C10AD7C9C131
:105B6000B81ECDC16666D0C18FC2D3C13D0AD7C1B0
:105B70006666DAC18FC2DDC1B81EE1C1E17AE4C157
:105B800085EBE7C185EBE7C148E1E0C1AE47DFC186
:105B90003D0AE3C1713DECC1C3F5FAC148E107C25A
:105BA0001F8515C2C3F526C2B81E3DC2B81E3DC230
:105BB00000003CC285EB3AC20AD739C28FC238C254
:105BC00052B837C2D7A336C29A9935C25C8F34C255
:105BD0001F8533C2E17A32C2A47031C2A47030C2D0
:105BE000A4702FC266662EC266662DC266662CC27F
:105BF000A4702BC2A4702AC2A47029C2E17A28C260
:105C00001F8527C25C8F26C29A9925C2D7A324C2BA
:105C100014AE23C28FC222C2CDCC21C248E120C221
:105C2000C3F51FC200001FC27B141EC233331DC246
:105C3000AE471CC2295C1BC2E17A1AC25C8F19C232
:105C400014AE18C2CDCC17C248E116C2000016C26D
:105C5000F62815C2AE4714C2666613C21F8512C26B
:105C600014AE11C20AD710C2C3F50FC2B81E0FC2BC
:105C7000AE470EC2A4700DC29A990CC28FC20BC25D
:105C800085EB0AC2B81E0AC2AE4709C2A47008C298
:105C9000D7A307C20AD706C23D0A06C2333305C2DC
:105CA000666604C29A9903C2CDCC02C23D0A02C202
:105CB000713D01C2A47000C2AE47FFC18FC2FDC1D9
:105CC000F628FCC1D7A3FAC1B81EF9C19A99F7C149
:105CD0000000F6C1E17AF4C1C3F5F2C1A470F1C1CC
:105CE0000000F0C1E17AEEC1C3F5ECC1A470EBC1D4
:105CF0000000EAC1E17AE8C13D0AE7C19A99E5C12D
:105D00007B14E4C1D7A3E2C13333E1C18FC2DFC149
:105D1000EC51DEC148E1DCC1A470DBC10000DAC196
:105D20005C8FD8C1B81ED7C18FC2D5C1EC51D4C1C8
:105D300048E1D2C11F85D1C1F628D0C152B8CEC129
:105D4000295CCDC10000CCC15C8FCAC13333C9C14D
:105D50000AD7C7C1E17AC6C1B81EC5C18FC2C3C1C7
:105D60006666C2C1B81EC1C18FC2BFC16666BEC170
:105D7000B81EBDC18FC2BBC16666BAC1B81EB9C16B
:105D80000AD7B7C1E17AB6C13333B5C185EBB3C128
:105D90005C8FB2C1AE47B1C10000B0C152B8AEC154
:105DA000A470ADC1F628ACC148E1AAC19A99A9C1B5
:105DB0006666A8C1B81EA7C10AD7A5C15C8FA4C1D9
:105DC000295CA3C17B14A2C148E1A0C19A999FC1DB
:105DD00066669EC1B81E9DC185EB9BC152B89AC133
:105DE0001F8599C1713D98C13D0A97C10AD795C1D8
:105DF000D7A394C1A47093C1713D92C13D0A91C1D2
:105E00000AD78FC10AD78FC10AD78FC10AD78FC1CE
:105E10000AD78FC10AD78FC10AD78FC10AD78FC1BE
:105E20000AD78FC10AD78FC10AD78FC10AD78FC1AE
:105E30000AD78FC10AD78FC10AD78FC10AD78FC19E
:106300000AD78FC10AD78FC152B88EC11F858DC1E0
:10631000EC518CC1B81E8BC100008AC1CDCC88C1A4
:106320009A9987C1E17A86C1AE4785C1F62884C1B2
:106330003D0A83C10AD781C152B880C133337FC1BE
:10634000CDCC7CC15C8F7AC1EC5178C17B1476C115
:106350000AD773C19A9971C1295C6FC1B81E6DC10A
:1063600048E16AC1D7A368C1666666C1EC5164C1E1
:106370007B1462C10AD75FC18FC25DC11F855BC13B
:10638000AE4759C1333357C1C3F554C148E152C177
:10639000D7A350C15C8F4EC1E17A4CC1713D4AC157
:1063A000F62848C17B1446C1000044C18FC241C1D8
:1063B00014AE3FC19A993DC11F853BC1A47039C13C
:1063C000295C37C1AE4735C1333333C1B81E31C143
:1063D00033332FC1B81E2DC13D0A2BC1C3F528C1CF
:1063E0003D0A27C1C3F524C148E122C1C3F520C13C
:1063F00048E11EC1C3F51CC148E11AC1C3F518C16B
:1064000048E116C1C3F514C13D0A13C1C3F510C15B
:106410003D0A0FC1B81E0DC133330BC1B81E09C1EF
:10642000333307C1AE4705C1295C03C1A47001C164
:106430003D0AFFC03333FBC0295CF7C01F85F3C0A2
:106440000000F0C0F628ECC0EC51E8C0E17AE4C0EE
:10645000D7A3E0C0B81EDDC0AE47D9C08FC2D5C03B
:1064600085EBD1C07B14CEC05C8FCAC052B8C6C009
:106470003333C3C0295CBFC00AD7BBC0EC51B8C01E
:10648000E17AB4C0C3F5B0C0A470ADC085EBA9C0BB
:106490007B14A6C05C8FA2C03D0A9FC01F859BC015
:1064A000000098C0E17A94C0C3F590C0A4708DC07C
:1064B00085EB89C0666686C048E182C052B87EC05E
:1064C000EC5178C0AE4771C0713D6AC0333363C0D0
:1064D000CDCC5CC08FC255C052B84EC0EC5148C044
:1064E000AE4741C048E13AC00AD733C0A4702DC0BE
:1064F000666626C0000020C09A9919C05C8F12C041
:10650000F6280CC08FC205C0A470FDBFD7A3F0BF92
:106510000AD7E3BF3D0AD7BF713DCABFA470BDBF54
:10652000D7A3B0BF0AD7A3BF3D0A97BF713D8ABFAB
:1065300048E17ABFAE4761BF14AE47BF7B142EBFA0
:10654000E17A14BF8FC2F5BE14AEC7BEE17A94BE25
:106550005C8F42BECDCCCCBD00000000000000002E
:106560005C8F423E14AEC73E3D0A173F713D4A3F25
:10657000A4707D3FEC51983F3333B33FCDCCCC3F3B
:1065800014AEE73FAE47014052B80E40F6281C401B
:10659000713D2A4014AE3740B81E45403333534056
:1065A000D7A3604052B86E40F6287C40B81E8540A4
:1065B000F6288C4048E1924085EB9940D7A3A04053
:1065C00014AEA74052B8AE40A470B540E17ABC40CA
:1065D0003333C340713DCA40C3F5D04014AED740F9
:1065E00052B8DE40A470E540F628EC4048E1F240A5
:1065F00085EBF940EC51004114AE03413D0A0741DF
:10660000713D0A419A990D41C3F51041EC51144175
:106610001F85174148E11A417B141E41AE472141B5
:10662000D7A324410AD727413D0A2B41713D2E4172
:10663000A4703141D7A334410AD737413D0A3B41C9
:10664000713D3E41A4704141E17A444114AE47415D
:1066500052B84A4185EB4D41C3F55041F6285441AB
:1066600033335741713D5A41A4705D41E17A604135
:106670001F8563415C8F66419A996941CDCC6C411D
:106680000AD76F4148E1724185EB7541C3F5784106
:1066900000007C4148E17E41C3F58041E17A8241BE
:1066A000000084411F8585413D0A87415C8F8841F8
:1066B0007B148A419A998B413D0A8D415C8F8E41B2
:1066C0007B1490419A999141B81E9341D7A394416C
:1066D000F628964114AE9741B81E9941D7A39A4126
:1066E000F6289C4114AE9D4133339F4152B8A041DE
:1066F000EC51A2410AD7A341295CA54148E1A6413A
:106700006666A84185EBA9411F85AB413D0AAD41B5
:106710005C8FAE41F628B04114AEB1413333B34182
:10672000CDCCB441EC51B64185EBB7411F85B941A1
:106730003D0ABB41D7A3BC41713DBE410AD7BF4111
:10674000A470C1413D0AC341D7A3C441713DC641B4
:106750000AD7C741A470C9413D0ACB4152B8CC41C8
:10676000EC51CE4185EBCF419A99D141AE47D3410F
:1067700048E1D4415C8FD641713DD84185EBD94188
:106780009A99DB41AE47DD41C3F5DE41D7A3E04135
:10679000EC51E2410000E4418FC2E541A470E741C1
:1067A0003333E941C3F5EA41D7A3EC416666EE41D4
:1067B000F628F041F628F041EC51F041EC51F0415F
:1067C000713DF041F628F041F628F041CDCCF04182
:1067D000EC51F241295CF541C3F5FA41C3F5FA41A8
:1067E000C3F5FA41C3F5FA41C3F5FA41C3F5FA41DD
:1067F000C3F5FA41C3F5FA41C3F5FA41C3F5FA41CD
:10680000C3F5FA41C3F5FA41C3F5FA41C3F5FA41BC
:10681000C3F5FA41C3F5FA41C3F5FA41C3F5FA41AC
:106A600085EBF941CDCCF8418FC2F741D7A3F64170
:106A70009A99F5415C8FF441A470F3416666F24146
:106A8000295CF141EC51F041AE47EF41713DEE41DF
:106A90003333ED41F628EC41B81EEB417B14EA415B
:106AA000B81EE9417B14E8413D0AE7417B14E64109
:106AB0003D0AE5417B14E4413D0AE3417B14E24198
:106AC0003D0AE1417B14E0413D0ADF417B14DE4198
:106AD000B81EDD41F628DC41B81EDB41F628DA415C
:106AE0003333D941713DD841AE47D741EC51D641FE
:106AF000295CD5416666D441A470D341E17AD24184
:106B00001F85D1415C8FD0419A99CF4152B8CE4177
:106B10008FC2CD41CDCCCC4185EBCB41C3F5CA4131
:106B20000000CA41B81EC941F628C8413333C741E5
:106B3000EC51C641295CC541E17AC4411F85C3417E
:106B4000D7A3C2418FC2C141CDCCC04185EBBF416B
:106B5000C3F5BE417B14BE413333BD41EC51BC4152
:106B6000295CBB41E17ABA419A99B94152B8B8411E
:106B70000AD7B74148E1B6410000B641B81EB54159
:106B8000713DB441295CB341E17AB2419A99B14176
:106B900052B8B0410AD7AF41C3F5AE417B14AE4104
:106BA0003333AD41EC51AC41A470AB415C8FAA4191
:106BB0008FC2A94148E1A8410000A841B81EA741E1
:106BC000713DA641295CA5415C8FA44114AEA3414F
:106BD000CDCCA24185EBA141B81EA141713DA041A0
:106BE000295C9F415C8F9E4114AE9D41CDCC9C4160
:106BF00000009C41B81E9B41EC519A41A470994100
:106C0000D7A398418FC2974148E196417B149641A2
:106C100033339541666694411F85934152B8924142
:106C200085EB91413D0A9141713D9041295C8F4135
:106C30005C8F8E4114AE8D4148E18C417B148C41B8
:106C400033338B4166668A419A99894152B88841AB
:106C500085EB8741B81E8741713D8641A47085410F
:106C6000D7A384410AD78341C3F58241F6288241E4
:106C7000295C81415C8F8041295C7F418FC27D41CD
:106C8000F6287C415C8F7A41C3F5784133337741F4
:106C90009A9975410000744166667241CDCC70418D
:106CA00033336F41A4706D410AD76B41713D6A4126
:106CB000D7A36841D7A36841D7A36841D7A3684148
:106CC000D7A36841D7A36841D7A36841D7A3684138
:106CD000D7A36841D7A36841D7A36841D7A3684128
:106CE000D7A36841D7A36841D7A36841D7A3684118
:1071B000D7A36841D7A368413D0A6741A4706541E0
:1071C0000AD76341713D6241D7A360413D0A5F41E7
:1071D000A4705D410AD75B41713D5A41D7A3584124
:1071E0003D0A5741A47055410AD75341713D524160
:1071F000D7A350413D0A4F41A4704D410AD74B419E
:10720000713D4A41D7A348413D0A4741A4704541D9
:107210000AD74341713D4241D7A340413D0A3F4116
:10722000A4703D410AD73B41713D3A41CDCC384134
:10723000333337419A993541000034416666324113
:10724000CDCC304133332F419A992D41F6282C4132
:107250005C8F2A41C3F52841295C27418FC2254113
:10726000F628244152B82241B81E21411F851F41F2
:1072700085EB1D41EC511C4152B81A41AE471941F2
:1072800014AE17417B141641E17A14413D0A1341B3
:10729000A47011410AD70F41713D0E41D7A30C4193
:1072A00033330B419A990941000008416666064153
:1072B000C3F50441295C03418FC20141F628004116
:1072C000A470FD40713DFA403D0AF740F628F440B5
:1072D000C3F5F0408FC2ED405C8FEA4014AEE7404A
:1072E000E17AE440AE47E1406666DE403333DB409E
:1072F0000000D840CDCCD44085EBD14052B8CE4030
:107300001F85CB40D7A3C840A470C540713DC24083
:10731000295CBF40F628BC40C3F5B8407B14B6409A
:1073200048E1B24014AEAF40CDCCAC409A99A940F0
:107330006666A6401F85A340EC51A040B81E9D4044
:10734000713D9A403D0A97400AD79340C3F590405B
:107350008FC28D405C8F8A4014AE8740E17A8440B2
:10736000AE478140CDCC7C406666764000007040E0
:10737000713D6A400AD76340A4705D4014AE574027
:10738000AE4751401F854B40B81E454052B83E4065
:10739000C3F538405C8F3240F6282C4066662640A4
:1073A00000002040713D1A400AD71340A4700D40E0
:1073B00014AE0740AE4701408FC2F53F713DEA3F32
:1073C000A470DD3F85EBD13FB81EC53FEC51B83FFF
:1073D000CDCCAC3F0000A03F3333933F14AE873F8A
:1073E0008FC2753F52B85E3FB81E453F1F852B3F89
:1073F000E17A143F8FC2F53E5C8FC23EE17A943E43
:107400005C8F423ECDCCCC3D00000000000000006F
:10741000000000000000000000000000000000006C
:10742000000000000000000000000000000000005C
:10743000000000000000000000000000000000004C
:10744000000000000000000000000000000000003C
:10791000CDCCCCBD5C8F42BEE17A94BE5C8FC2BE42
:107920008FC2F5BEE17A14BF1F852BBFB81E45BFBD
:1079300052B85EBF8FC275BF14AE87BF333393BFDB
:107940000000A0BFCDCCACBFEC51B8BFB81EC5BFC6
:1079500085EBD1BFA470DDBF713DEABF8FC2F5BF1B
:10796000AE4701C014AE07C0A4700DC00AD713C043
:10797000713D1AC0000020C0666626C0F6282CC0E3
:107980005C8F32C0C3F538C052B83EC0B81E45C087
:107990001F854BC0AE4751C014AE57C0A4705DC028
:1079A0000AD763C0713D6AC0000070C0666676C0C9
:1079B000CDCC7CC0AE4781C0E17A84C014AE87C014
:1079C0005C8F8AC08FC28DC0D7A390C00AD793C0E6
:1079D0003D0A97C085EB99C0B81E9DC0EC51A0C070
:1079E0003333A3C06666A6C09A99A9C0E17AACC039
:1079F00014AEAFC048E1B2C08FC2B5C0C3F5B8C0C5
:107A0000F628BCC03D0ABFC0713DC2C0A470C5C04D
:107A1000EC51C8C01F85CBC052B8CEC09A99D1C016
:107A2000CDCCD4C00000D8C048E1DAC07B14DEC0A1
:107A3000AE47E1C0F628E4C0295CE7C05C8FEAC02D
:107A4000A470EDC0D7A3F0C00AD7F3C052B8F6C0F7
:107A500085EBF9C0B81EFDC0000000C19A9901C1B4
:107A6000333303C1D7A304C1713D06C10AD707C18F
:107A7000A47009C148E10AC1E17A0CC17B140EC1AE
:107A80001F850FC1B81E11C152B812C1F62814C10A
:107A90008FC215C1295C17C1C3F518C166661AC12A
:107AA00000001CC19A991DC13D0A1FC1D7A320C166
:107AB000713D22C10AD723C1AE4725C148E126C185
:107AC000E17A28C17B142AC11F852BC1B81E2DC1A4
:107AD00052B82EC1F62830C18FC231C1295C33C1E2
:107AE000C3F534C1666636C1000038C19A9939C100
:107AF00033333BC1D7A33CC1713D3EC10AD73FC11F
:107B0000A47041C148E142C1E17A44C17B1446C13D
:107B100014AE47C1B81E49C152B84AC1EC514CC15C
:107B200085EB4DC1295C4FC1C3F550C15C8F52C17B
:107B3000F62854C19A9955C1333357C1CDCC58C199
:107B400066665AC100005CC1A4705DC13D0A5FC198
:107B5000D7A360C1713D62C114AE63C1AE4765C1B8
:107B600048E166C148E166C148E166C148E166C1D5
:107B700048E166C148E166C148E166C148E166C1C5
:107B800048E166C148E166C148E166C148E166C1B5
:107B900048E166C148E166C148E166C148E166C1A5
:107DE00048E166C148E166C1000064C1C3F560C1F5
:107DF0007B145EC13D0A5BC10AD757C1CDCC54C1CB
:107E00009A9951C166664EC13D0A4BC10AD747C116
:107E1000E17A44C1B81E41C18FC23DC1713D3AC132
:107E200048E136C1295C33C10AD72FC1EC512CC1BE
:107E3000CDCC28C1AE4725C18FC221C1713D1EC125
:107E400052B81AC13D0A17C11F8513C10AD70FC105
:107E5000EC510CC1CDCC08C1B81E05C19A9901C125
:107E60000AD7FBC0CDCCF4C0A470EDC06666E6C0F6
:107E7000295CDFC00000D8C0C3F5D0C085EBC9C005
:107E800048E1C2C01F85BBC0E17AB4C0A470ADC0D8
:107E900052B8A6C014AE9FC0D7A398C09A9991C0FB
:107EA00048E18AC00AD783C0713D7AC0F6286CC009
:107EB00052B85EC0AE4751C00AD743C0666636C0EE
:107EC000C3F528C01F851BC07B140EC0D7A300C0FC
:107ED00014AEE7BFCDCCCCBF3333B3BFEC5198BFAA
:107EE000A4707DBF713D4ABF3D0A17BF14AEC7BE27
:107EF0005C8F42BE0AD7233C3D0A573E85EBD13EFC
:107F00009A99193FCDCC4C3F0000803FEC51983FEF
:107F100085EBB13F713DCA3F5C8FE23F48E1FA3FDC
:107F2000713D0A40666616405C8F224052B82E4072
:107F300048E13A403D0A47403333534052B85E402F
:107F400048E16A403D0A77409A998140295C874020
:107F5000A4708D401F859340AE479940295C9F4097
:107F6000B81EA5403333AB40C3F5B0403D0AB7401F
:107F7000CDCCBC4048E1C240D7A3C84052B8CE40A7
:107F8000E17AD440713DDA40EC51E0407B14E640A8
:107F9000F628EC4085EBF14014AEF7408FC2FD406F
:107FA0008FC20141D7A3044114AE07415C8F0A413F
:107FB000A4700D41E17A1041295C1341713D1641D5
:107FC000AE471941F6281C4133331F417B1422412F
:107FD000C3F524410000284148E12A4185EB2D41A9
:107FE000CDCC30410AD7334152B836419A99394104
:107FF000D7A33C4114AE3F415C8F42419A99454121
:10800000E17A48411F854B4166664E41A47051415B
:10801000E17A5441295C574166665A41A4705D413A
:10802000EC516041295C634166666641A470694118
:10803000EC516C41295C6F41666672416666724123
:1080400000007441E17A74411F857341A47071414D
:1080500052B86E4114AE6B41B81E69410AD76741F0
:10806000D7A36841D7A368413D0A6741A470654121
:108070000AD76341713D6241D7A360413D0A5F4128
:10808000A4705D410AD75B41713D5A41D7A3584165
:108090003D0A5741A47055410AD75341713D5241A1
:1080A000D7A350413D0A4F41A4704D410AD74B41DF
:1080B000713D4A41D7A348413D0A4741A47045411B
:1080C0000AD74341713D4241D7A340413D0A3F4158
:1080D000A4703D410AD73B41713D3A41CDCC384176
:1080E000333337419A993541000034416666324155
:1080F000CDCC304133332F419A992D41F6282C4174
:108100005C8F2A41C3F52841295C27418FC2254154
:10811000F628244152B82241B81E21411F851F4133
:1081200085EB1D41EC511C4152B81A41AE47194133
:1081300014AE17417B141641E17A14413D0A1341F4
:10814000A47011410AD70F41713D0E41D7A30C41D4
:1081500033330B419A990941000008416666064194
:10816000C3F50441295C03418FC20141F628004157
:10817000A470FD40713DFA403D0AF740F628F440F6
:10818000C3F5F0408FC2ED405C8FEA4014AEE7408B
:10819000E17AE440AE47E1406666DE403333DB40DF
:1081A0000000D840CDCCD44085EBD14052B8CE4071
:1081B0001F85CB40D7A3C840A470C540713DC240C5
:1081C000295CBF40F628BC40C3F5B8407B14B640DC
:1081D00048E1B24014AEAF40CDCCAC409A99A94032
:1081E0006666A6401F85A340EC51A040B81E9D4086
:1081F000713D9A403D0A97400AD79340C3F590409D
:108200008FC28D405C8F8A4014AE8740E17A8440F3
:10821000AE478140CDCC7C40666676400000704021
:10822000713D6A400AD76340A4705D4014AE574068
:10823000AE4751401F854B40B81E454052B83E40A6
:10824000C3F538405C8F3240F6282C4066662640E5
:1082500000002040713D1A400AD71340A4700D4021
:1082600014AE0740AE4701408FC2F53F713DEA3F73
:10827000A470DD3F85EBD13FB81EC53FEC51B83F40
:10828000CDCCAC3F0000A03F3333933F14AE873FCB
:108290008FC2753F52B85E3FB81E453F1F852B3FCA
:1082A000E17A143F8FC2F53E5C8FC23EE17A943E84
:1082B0005C8F423ECDCCCC3D0000000000000000B1
:1082C00000000000000000000000000000000000AE
:1082D000000000000000000000000000000000009E
:1082E000000000000000000000000000000000008E
:1082F000000000000000000000000000000000007E
:1087C000CDCCCCBD5C8F42BEE17A94BE5C8FC2BE84
:1087D0008FC2F5BEE17A14BF1F852BBFB81E45BFFF
:1087E00052B85EBF8FC275BF14AE87BF333393BF1D
:1087F0000000A0BFCDCCACBFEC51B8BFB81EC5BF08
:1088000085EBD1BFA470DDBF713DEABF8FC2F5BF5C
:10881000AE4701C014AE07C0A4700DC00AD713C084
:10882000713D1AC0000020C0666626C0F6282CC024
:108830005C8F32C0C3F538C052B83EC0B81E45C0C8
:108840001F854BC0AE4751C014AE57C0A4705DC069
:108850000AD763C0713D6AC0000070C0666676C00A
:10886000CDCC7CC0AE4781C0E17A84C014AE87C055
:108870005C8F8AC08FC28DC0D7A390C00AD793C027
:108880003D0A97C085EB99C0B81E9DC0EC51A0C0B1
:108890003333A3C06666A6C09A99A9C0E17AACC07A
:1088A00014AEAFC048E1B2C08FC2B5C0C3F5B8C006
:1088B000F628BCC03D0ABFC0713DC2C0A470C5C08F
:1088C000EC51C8C01F85CBC052B8CEC09A99D1C058
:1088D000CDCCD4C00000D8C048E1DAC07B14DEC0E3
:1088E000AE47E1C0F628E4C0295CE7C05C8FEAC06F
:1088F000A470EDC0D7A3F0C00AD7F3C052B8F6C039
:1089000085EBF9C0B81EFDC0000000C19A9901C1F5
:10891000333303C1D7A304C1713D06C10AD707C1D0
:10892000A47009C148E10AC1E17A0CC17B140EC1EF
:108930001F850FC1B81E11C152B812C1F62814C14B
:108940008FC215C1295C17C1C3F518C166661AC16B
:1089500000001CC19A991DC13D0A1FC1D7A320C1A7
:10896000713D22C10AD723C1AE4725C148E126C1C6
:10897000E17A28C17B142AC11F852BC1B81E2DC1E5
:1089800052B82EC1F62830C18FC231C1295C33C123
:10899000C3F534C1666636C1000038C19A9939C141
